:020000040800F2
:100000000080012051A100082D9900083B990008AB
:1000100041990008479900084D9900080000000028
:1000200000000000000000000000000053990008DC
:1000300061990008000000006F9900087D99000890
:10004000A1A10008A1A10008A1A10008A1A1000888
:10005000A1A10008A1A10008A1A10008A1A1000878
:10006000A1A10008A1A10008A1A10008A1A1000868
:10007000A1A10008A1A10008A1A10008A1A1000858
:10008000A1A10008A1A10008A1A10008A1A1000848
:10009000A1A10008A1A10008A1A10008A1A1000838
:1000A000A1A10008A1A10008A1A10008A1A1000828
:1000B000A1A10008A1A10008A1A10008A1A1000818
:1000C000A1A10008A1A10008A1A10008A1A1000808
:1000D000A1A10008A1A10008A1A10008A1A10008F8
:1000E000A1A10008A1A10008A1A10008A1A10008E8
:1000F000A1A10008A1A10008A1A10008A1A10008D8
:10010000A1A10008A1A10008A1A10008A1A10008C7
:10011000A1A10008A1A10008A1A10008A1A10008B7
:10012000A1A10008A1A10008A1A10008A1A10008A7
:10013000A1A10008A1A10008A1A10008A1A1000897
:10014000A1A10008A1A10008A1A1000889990008A7
:10015000A1A10008A1A10008A1A10008A1A1000877
:10016000A1A10008A1A10008A1A10008A1A1000867
:10017000A1A10008A1A10008A1A1000800000000A1
:08018000A1A10008A1A10008E3
:1001880010B5054C237833B9044B13B10448AFF3C9
:1001980000800123237010BD8800002000000000AB
:1001A800A4A3000808B5034B1BB103490348AFF3E8
:1001B800008008BD000000008C000020A4A30008F7
:1001C80053B94AB9002908BF00281CBF4FF0FF31B6
:1001D8004FF0FF3000F07AB9ADF1080C6DE904CEAC
:1001E80000F006F8DDF804E0DDE9022304B070470A
:1001F8002DE9F0478C460D460446089E002B51D148
:100208008A4217466DD9B2FA82FEBEF1000F0BD0B2
:10021800CEF1200C01FA0EF520FA0CFC02FA0EF7CA
:100228004CEA050C00FA0EF44FEA174A250CBCFB01
:10023800FAF81FFA87F90AFB18CC45EA0C4508FBBF
:1002480009F3AB420AD9ED1908F1FF3280F0238196
:10025800AB4240F22081A8F102083D44ED1AA4B255
:10026800B5FBFAF00AFB105544EA054400FB09F90E
:10027800A14509D9E41900F1FF3380F00A81A145AD
:1002880040F2078102383C44A4EB090440EA0840E4
:100298000021002E61D024FA0EF40023346073602C
:1002A800BDE8F0878B4207D9002E54D0002186E89C
:1002B80021000846BDE8F087B3FA83F1002940F031
:1002C8008E80AB4202D3824200F2FA80841A65EB38
:1002D80003050120AC46002E3FD086E81010BDE88B
:1002E800F08712B90127B7FBF2F7B7FA87FEBEF11C
:1002F800000F34D1EB1B3A0C1FFA87FC0121B3FB2A
:10030800F2F8250C02FB183345EA03450CFB08F309
:10031800AB4207D9ED1908F1FF3002D2AB4200F227
:10032800D1808046ED1AA3B2B5FBF2F002FB10555E
:1003380043EA05440CFB00FCA44507D9E41900F185
:10034800FF3302D2A44500F2B8801846A4EB0C048F
:1003580040EA08409DE731463046BDE8F087CEF1D7
:10036800200405FA0EF307FA0EF720FA04F83A0CFF
:1003780025FA04F448EA0308B4FBF2F14FEA1845F9
:1003880002FB11441FFA87FC45EA044501FB0CF304
:10039800AB4200FA0EF409D9ED1901F1FF3080F0F3
:1003A8008A80AB4240F2878002393D44EB1A1FFA3B
:1003B80088F5B3FBF2F002FB103345EA034500FB76
:1003C8000CF3AB4207D9ED1900F1FF386FD2AB42FD
:1003D8006DD902383D44EB1A40EA01418FE7C1F17B
:1003E800200722FA07F88B4005FA01F448EA0303CC
:1003F80020FA07FE4FEA134CFD404EEA040EB5FB07
:10040800FCF94FEA1E440CFB19551FFA83F844EA1D
:10041800054509FB08F4AC4202FA01F200FA01FAB8
:1004280008D9ED1809F1FF3043D2AC4241D9A9F1FE
:1004380002091D442D1B1FFA8EFEB5FBFCF00CFBB8
:1004480010554EEA054400FB08F8A04507D9E41802
:1004580000F1FF3529D2A04527D902381C4440EACB
:100468000940A4EB0804A0FB02894C45C6464D464A
:1004780015D312D056B1BAEB0E0364EB050404FA97
:1004880007F7CB401F43CC40376074600021BDE8BC
:10049800F0871846F8E69046E0E6C245EAD2B8EB9F
:1004A800020E69EB03050138E4E72846D7E7404622
:1004B80091E78146BEE7014678E702383C4445E7C4
:1004C800084608E7A8F102083D442BE7704700BF3B
:1004D80080B582B000AF0023FB710C4A0B4B1B6840
:1004E80043F480731360032000F038F9002000F013
:1004F8000FF80346002B02D00123FB7101E009F03D
:10050800EDF9FB7918460837BD4680BD002002404A
:1005180080B584B000AF78600023FB730C4B1B6878
:100528000C4AA2FB03239B09184600F04CF903462A
:10053800002B02D00123FB7305E0002279684FF0FD
:10054800FF3000F016F9FB7B18461037BD4680BD1A
:1005580020000020D34D621080B400AF044B1B680C
:100568000133034A136000BFBD465DF8047B704742
:10057800BC00002080B400AF034B1B681846BD4682
:100588005DF8047B704700BFBC00002080B584B0D4
:1005980000AF7860FFF7EEFFB8607B68FB60FB6830
:1005A800B3F1FF3F02D0FB680133FB6000BFFFF7E8
:1005B800E1FF0246BB68D21AFB689A42F7D300BF34
:1005C8001037BD4680BD000080B485B000AF7860AC
:1005D8007B6803F00703FB600C4BDB68BB60BA6801
:1005E8004FF6FF031340BB60FB681A02BB68134356
:1005F80043F0BF6343F40033BB60044ABB68D36075
:1006080000BF1437BD465DF8047B704700ED00E07D
:1006180080B400AF044BDB681B0A03F007031846DD
:10062800BD465DF8047B704700ED00E080B483B000
:1006380000AF0346FB71094997F907305B09FA795E
:1006480002F01F02012000FA02F241F8232000BF45
:100658000C37BD465DF8047B704700BF00E100E041
:1006680080B483B000AF03463960FB7197F9073057
:10067800002B0BDA0D49FB7903F00F03043B3A68B2
:10068800D2B21201D2B20B441A7609E0084997F99E
:1006980007303A68D2B21201D2B20B4483F8002371
:1006A80000BF0C37BD465DF8047B704700ED00E0E5
:1006B80000E100E080B489B000AFF860B9607A600A
:1006C800FB6803F00703FB61FB69C3F10703042B15
:1006D80028BF0423BB61FB690433062B02D9FB69DD
:1006E800033B00E000237B610122BB6902FA03F3AC
:1006F8005A1EBB681A407B699A4001217B6901FA3E
:1007080003F3591E7B680B40134318462437BD4634
:100718005DF8047B7047000080B582B000AF786058
:100728007B68013BB3F1807F01D301230FE00A4AC4
:100738007B68013B53600F214FF0FF30FFF790FFBC
:10074800054B00229A60044B07221A6000231846C2
:100758000837BD4680BD00BF10E000E080B582B01C
:1007680000AF78607868FFF72FFF00BF0837BD46F5
:1007780080BD80B586B000AF0346B9607A60FB7370
:1007880000237B61FFF744FF78617A68B96878696C
:10079800FFF790FF024697F90F3011461846FFF70A
:1007A8005FFF00BF1837BD4680BD80B582B000AF7F
:1007B8000346FB7197F907301846FFF737FF00BF6C
:1007C8000837BD4680BD80B582B000AF78607868D4
:1007D800FFF7A2FF034618460837BD4680BD000054
:1007E80080B487B000AF7860396000237B617FE117
:1007F8003B681A6801217B6901FA03F31340FB6027
:10080800FB68002B00F071813B685B68022B03D00A
:100818003B685B68122B23D17B69DA087B68083256
:1008280053F822303B617B6903F007039B000F22DA
:1008380002FA03F3DB433A6913403B613B681A69E8
:100848007B6903F007039B0002FA03F33A69134339
:100858003B617B69DA087B680832396943F8221002
:100868007B681B683B617B695B00032202FA03F328
:10087800DB433A6913403B613B685B6803F0030262
:100888007B695B0002FA03F33A6913433B617B68B7
:100898003A691A603B685B68012B0BD03B685B6860
:1008A800022B07D03B685B68112B03D03B685B6861
:1008B800122B30D17B689B683B617B695B0003220C
:1008C80002FA03F3DB433A6913403B613B68DA6899
:1008D8007B695B0002FA03F33A6913433B617B6867
:1008E8003A699A607B685B683B6101227B6902FA1E
:1008F80003F3DB433A6913403B613B685B681B09C0
:1009080003F001027B6902FA03F33A6913433B617E
:100918007B683A695A603B685B6803F00303032B02
:1009280018D17B68DB6A3B6101227B6902FA03F319
:10093800DB433A6913403B613B685B68DB0803F0C3
:1009480001027B6902FA03F33A6913433B617B684E
:100958003A69DA627B68DB683B617B695B0003228A
:1009680002FA03F3DB433A6913403B613B689A6838
:100978007B695B0002FA03F33A6913433B617B68C6
:100988003A69DA603B685B6803F08053002B00F03B
:10099800AC805E4A5D4B1B6E43F0010313665B4BF4
:1009A8001B6E03F00103BB60BB68594A7B699B0857
:1009B800023352F823303B617B6903F003039B0049
:1009C8000F2202FA03F3DB433A6913403B617B6869
:1009D800B3F1904F25D07B684E4A93421FD07B6875
:1009E8004D4A934219D07B684C4A934213D07B6896
:1009F8004B4A93420DD07B684A4A934207D07B68A2
:100A0800494A934201D106230CE007230AE0052353
:100A180008E0042306E0032304E0022302E00123A4
:100A280000E000237A6902F00302920093403A69D9
:100A380013433B6136497B699B0802333A6941F8A5
:100A480023203A4B1B683B61FB68DB433A69134040
:100A58003B613B685B6803F48033002B03D03A6941
:100A6800FB6813433B61314A3B6913602F4B5B685A
:100A78003B61FB68DB433A6913403B613B685B6859
:100A880003F40033002B03D03A69FB6813433B613E
:100A9800264A3B695360254B9B683B61FB68DB43F7
:100AA8003A6913403B613B685B6803F48013002B91
:100AB80003D03A69FB6813433B611C4A3B69936066
:100AC8001A4BDB683B61FB68DB433A6913403B61C7
:100AD8003B685B6803F40013002B03D03A69FB689A
:100AE80013433B61114A3B69D3607B6901337B61E6
:100AF8003B681A687B6922FA03F3002B7FF478AE0F
:100B080000BF1C37BD465DF8047B704700100240EB
:100B1800000001400004004800080048000C00489C
:100B28000010004800140048001800480004014064
:100B380080B483B000AF78600B467B8013467B702F
:100B48007B78002B03D07A887B689A6102E07A88E8
:100B58007B689A6200BF0C37BD465DF8047B70471E
:100B6800F0B58DB00AAF78607B68002B01D1012306
:100B780048E07B6893F8B932DBB2002B06D17B687A
:100B8800002283F8B822786809F038F87B680322D5
:100B980083F8B9227B681B68184605F063FC7B68FC
:100BA8001B683B607E686D4606F110040FCC0FC5CC
:100BB8000FCC0FC594E8030085E80300331D0ECB66
:100BC800386805F0FCFB7B681B680121184605F0B6
:100BD8005AFC7B681B683B607E686D4606F1100412
:100BE8000FCC0FC50FCC0FC594E8030085E80300B0
:100BF800331D0ECB386805F069FD7B68012283F848
:100C0800B922002318460C37BD46F0BD90B589B00F
:100C180004AF7860084611461A460346FB700B4637
:100C2800BB7013467B707B6893F8B832012B01D1F7
:100C380002237FE07B68012283F8B822FA7879687A
:100C480013469B001344DB000B443D3300221A700B
:100C5800FA78796813469B001344DB000B44383359
:100C68007A781A70FA78796813469B001344DB0087
:100C78000B4440333A8D1A80FA78796813469B0002
:100C88001344DB000B443933FA781A70FA78796820
:100C980013469B001344DB000B443F3397F8242092
:100CA8001A70FA78BB7803F07F03D8B279681346D4
:100CB8009B001344DB000B443A3302461A7097F941
:100CC8000230002B0ADAFA78796813469B0013443D
:100CD800DB000B443B3301221A7009E0FA7879688B
:100CE80013469B001344DB000B443B3300221A706D
:100CF800FA78796813469B001344DB000B443C33B5
:100D080097F820201A707B6818687C78BA78F97888
:100D18003B8D029397F82430019397F82030009385
:100D2800234605F045FE0346FB737B68002283F8E3
:100D3800B822FB7B18461437BD4690BD80B584B0F9
:100D480000AF78600B46FB700023FB737B6893F859
:100D5800B832012B01D102230FE07B68012283F80E
:100D6800B8227B681B68FA781146184606F02BF8FB
:100D78007B68002283F8B822FB7B18461037BD46F3
:100D880080BD000080B582B000AF7860084611468B
:100D98001A460346FB700B46BB7013467B70FA7805
:100DA800796813469B001344DB000B443B33BA7845
:100DB8001A70FA78796813469B001344DB000B44D9
:100DC8003F337A781A703B7C002B0AD1FA7879681D
:100DD80013469B001344DB000B44423303221A7072
:100DE80009E0FA78796813469B001344DB000B444A
:100DF800423302221A707B78032B00F2D68001A2BC
:100E080052F823F01D0E00089D0F0008890E0008F7
:100E1800130F00083B7C012B40F0C980BB78002BE6
:100E280040F0C5803B8B002B09D1FA7879681346CE
:100E38009B001344DB000B44513301221A70FA78EB
:100E4800796813469B001344DB000B4451331B782D
:100E5800002B0AD1FA78796813469B001344DB000B
:100E68000B44423300221A70A1E0FA7879681346DD
:100E78009B001344DB000B44423302221A7096E0B5
:100E8800BB78002B20D1FA78796813469B0013446D
:100E9800DB000B4451331B78002B0AD1FA787968B0
:100EA80013469B001344DB000B44423300221A70A4
:100EB8007EE0FA78796813469B001344DB000B4404
:100EC800423302221A7073E0FA78796813469B005D
:100ED8001344DB000B4450331B78002B0AD1FA78FB
:100EE800796813469B001344DB000B44423300220D
:100EF8001A705DE0FA78796813469B001344DB00AA
:100F08000B44423302221A7052E0BB78002B20D1E6
:100F1800FA78796813469B001344DB000B4451337D
:100F28001B78002B0AD1FA78796813469B00134482
:100F3800DB000B44423300221A7039E0FA787968F2
:100F480013469B001344DB000B44423302221A7001
:100F58002EE0FA78796813469B001344DB000B44B3
:100F680050331B78002B0AD1FA78796813469B0016
:100F78001344DB000B44423300221A7018E0FA785D
:100F8800796813469B001344DB000B44423302226A
:100F98001A700DE0FA78796813469B001344DB0059
:100FA8000B44423300221A7002E000BF00E000BF89
:100FB800FA78796813469B001344DB000B444433EA
:100FC8007A691A60FA78398B786813469B0013445B
:100FD800DB00034448331960FA78796813469B00AC
:100FE8001344DB000B445C3300221A70FA787968EA
:100FF80013469B001344DB000B444C3300221A6059
:10100800FA78796813469B001344DB000B443933A4
:10101800FA781A70FA78796813469B001344DB0053
:101028000B445D3300221A707B681868FA781346FF
:101038009B001344DB0038337A681344194605F0E3
:10104800AFFD034618460837BD4680BD80B586B05B
:1010580000AF78607B681B683B613B69FB607B681D
:101068001B68184605F0EFFA0346012B40F0F280A2
:101078007B681B68184605F0D3FA0346002B00F07E
:10108800E8807B681B68184605F0CAFA034603F433
:101098000013B3F5001F04D17B681B684FF40012DE
:1010A8005A617B681B68184605F0BAFA034603F4D0
:1010B8008013B3F5801F04D17B681B684FF480123E
:1010C8005A617B681B68184605F0AAFA034603F0C4
:1010D8008063B3F1806F04D17B681B684FF0806236
:1010E8005A617B681B68184605F09AFA034603F0B4
:1010F8000203022B03D17B681B6802225A617B68BA
:101108001B68184605F08CFA034603F00053B3F148
:10111800005F18D1FB6803F588631A46FB6803F57E
:1011280088631B6823F02E031360786808F0E0FDDD
:101138007B681B680121184605F06EFB7B681B68FD
:101148004FF000525A617B681B68184605F068FA30
:10115800034603F08073B3F1807F02D1786801F011
:10116800D1F87B681B68184605F05AFA034603F065
:101178000803082B06D1786808F09EFD7B681B6879
:1011880008225A617B681B68184605F049FA03462D
:1011980003F00073B3F1007F38D17B681B681846F1
:1011A80005F000FEB86000237B6125E07B6903F051
:1011B8000F03BA6822FA03F303F00103002B18D0D7
:1011C8007B695A01FB68134403F5A0631B6803F4A9
:1011D8000043B3F5004F06D17B69DBB21946786846
:1011E80000F0CFF805E07B69DBB21946786800F0BB
:1011F80069FC7B6901337B617B689A687B699A42E9
:10120800D4D87B681B684FF000725A617B681B68F2
:10121800184605F005FA034603F01003102B01D118
:10122800012300E00023002B14D07B681B687A6838
:101238001268926922F010029A61786800F0B6FF8D
:101248007B681B687A681268926942F010029A619A
:1012580000E000BF1837BD4680BD80B582B000AF42
:1012680078607B6893F8B832012B01D1022313E030
:101278007B68012283F8B8227B681B68184605F052
:10128800E0F87B681B680121184605F02DFB7B6898
:10129800002283F8B822002318460837BD4680BDCF
:1012A80080B582B000AF78607B6893F8B832012BC4
:1012B80001D102230DE07B68012283F8B8227B6804
:1012C8001B68184605F088FE7B68002283F8B82260
:1012D800002318460837BD4680BD80B582B000AFF0
:1012E80078607B681B68184605F0D2FA03461846F2
:1012F8000837BD4680BD80B483B000AF78600B4628
:10130800FB70FA78796813469B001344DB000B44A2
:101318005C331B7818460C37BD465DF8047B704774
:1013280080B483B000AF78600B46FB70FA787968B8
:1013380013469B001344DB000B444C331B681846D0
:101348000C37BD465DF8047B704780B582B000AFAE
:1013580078607B681B68184605F018FB034618463A
:101368000837BD4680BD80B582B000AF78607B6825
:101378001B68184605F0F3FA034618460837BD46B9
:1013880080BD80B586B000AF78600B46FB707B6887
:101398001B687B617B693B61FB78FB60FB685A01DA
:1013A8003B69134403F5A0639B6803F00403042B13
:1013B8001AD1FB685A013B69134403F5A0631A4626
:1013C80004239360FB685A013B69134403F5A06347
:1013D8001946FB685A013B69134403F5A063DB68AF
:1013E80043F00203CB6097E0FB685A013B69134462
:1013F80003F5A0639B6803F02003202B09D1FB6849
:101408005A013B69134403F5A0631A4620239360ED
:1014180082E0FB685A013B69134403F5A0639B68AB
:1014280003F00803082B35D1FB685A013B691344C4
:1014380003F5A0631946FB685A013B69134403F599
:10144800A063DB6843F00203CB607968FA6813464F
:101458009B001344DB000B445D3305221A70FB68C4
:101468005A013B69134403F5A0631A46102393609D
:10147800FB685A013B69134403F5A0631A46082325
:1014880093607B681B68FA68D2B21146184605F06B
:101498009AFC41E0FB685A013B69134403F5A063D9
:1014A8009B6803F48063B3F5806F35D1FB685A01FC
:1014B8003B69134403F5A0631946FB685A013B696D
:1014C800134403F5A063DB6843F00203CB607B6839
:1014D8001B68FA68D2B21146184605F074FCFB681E
:1014E8005A013B69134403F5A0631A46102393601D
:1014F8007968FA6813469B001344DB000B445D339C
:1015080008221A70FB685A013B69134403F5A0636B
:101518001A464FF480639360FB685A013B69134491
:1015280003F5A0639B6803F40073B3F5007F23D130
:10153800FB685A013B69134403F5A0631946FB682D
:101548005A013B69134403F5A063DB6843F00203C7
:10155800CB607B681B68FA68D2B21146184605F062
:1015680032FCFB685A013B69134403F5A0631A4631
:101578004FF400739360A1E2FB685A013B6913447E
:1015880003F5A0639B6803F00103012B40F0C380BF
:101598007B681B69002B1BD07968FA6813469B008F
:1015A8001344DB000B4448331A68FB6859013B6954
:1015B8000B4403F5A0631B69C3F31203D11A7868BF
:1015C800FA6813469B001344DB0003444C3319604C
:1015D8007968FA6813469B001344DB000B445D33BB
:1015E80001221A707968FA6813469B001344DB00DD
:1015F8000B44583300221A60FB685A013B691344B4
:1016080003F5A0631A46012393607968FA681346C4
:101618009B001344DB000B443F331B78002B0AD09C
:101628007968FA6813469B001344DB000B443F3388
:101638001B78022B22D1FB685A013B69134403F53E
:10164800A0631946FB685A013B69134403F5A0637C
:10165800DB6843F00203CB607B681B68FA68D2B290
:101668001146184605F0AFFBFB685A013B69134465
:1016780003F5A0631A461023936035E07968FA6889
:1016880013469B001344DB000B443F331B78032BAA
:101698002AD1FB685A013B69134403F5A063194634
:1016A800FB685A013B69134403F5A0631B6843F0C8
:1016B80000530B607968FA6813469B001344DB00FB
:1016C8000B445C3301221A70FB68D8B27968FA6857
:1016D80013469B001344DB000B445C331B781A460B
:1016E8000146786808F012FB7968FA6813469B008F
:1016F8001344DB000B4450331B7883F00103D8B24A
:101708007968FA6813469B001344DB000B44503396
:1017180002461A70D2E1FB685A013B69134403F58B
:10172800A0639B6803F00203022B40F0F280FB6881
:101738005A013B69134403F5A0631946FB685A0133
:101748003B69134403F5A063DB6823F00203CB6015
:101758007968FA6813469B001344DB000B445D3339
:101768001B78012B0AD17968FA6813469B00134449
:10177800DB000B445C3301221A70B0E07968FA6828
:1017880013469B001344DB000B445D331B78052B89
:101798000AD17968FA6813469B001344DB000B44AE
:1017A8005C3305221A709AE07968FA6813469B0040
:1017B8001344DB000B445D331B78062B0AD0796891
:1017C800FA6813469B001344DB000B445D331B7817
:1017D800082B56D17968FA6813469B001344DB003E
:1017E8000B4458331B68591C7868FA6813469B00E9
:1017F8001344DB000344583319607968FA681346C8
:101808009B001344DB000B4458331B68032B14D98B
:101818007968FA6813469B001344DB000B4458337D
:1018280000221A607968FA6813469B001344DB00AB
:101838000B445C3304221A7009E07968FA6813468D
:101848009B001344DB000B445C3302221A70FB68D4
:101858005A013B69134403F5A0631B68BB60BB686E
:1018680023F08043BB60BB6843F00043BB60FB6868
:101878005A013B69134403F5A0631A46BB68136019
:101888002DE07968FA6813469B001344DB000B448B
:101898005D331B78032B22D17968FA6813469B00C5
:1018A8001344DB000B445C3302221A70FB685A01B4
:1018B8003B69134403F5A0631B68BB60BB6823F056
:1018C8008043BB60BB6843F00043BB60FB685A01C0
:1018D8003B69134403F5A0631A46BB681360FB68B1
:1018E8005A013B69134403F5A0631A460223936027
:1018F800FB68D8B27968FA6813469B001344DB008A
:101908000B445C331B781A460146786808F0FEF9E8
:10191800D4E0FB685A013B69134403F5A0639B6854
:1019280003F08003802B3FD1FB685A013B691344C5
:1019380003F5A0631946FB685A013B69134403F594
:10194800A063DB6843F00203CB607968FA6813464A
:101958009B001344DB000B4458331B68591C786800
:10196800FA6813469B001344DB000344583319609C
:101978007968FA6813469B001344DB000B445D3317
:1019880006221A707B681B68FA68D2B2114618469C
:1019980005F019FAFB685A013B69134403F5A06383
:1019A8001A468023936089E0FB685A013B69134417
:1019B80003F5A0639B6803F01003102B7ED17968B0
:1019C800FA6813469B001344DB000B443F331B7833
:1019D800032B23D17968FA6813469B001344DB0074
:1019E8000B44583300221A60FB685A013B691344C0
:1019F80003F5A0631946FB685A013B69134403F5D4
:101A0800A063DB6843F00203CB607B681B68FA685D
:101A1800D2B21146184605F0D6F946E07968FA6858
:101A280013469B001344DB000B443F331B78002B09
:101A38000AD07968FA6813469B001344DB000B440C
:101A48003F331B78022B30D17968FA6813469B0024
:101A58001344DB000B44583300221A607B681B696F
:101A6800002B22D17968FA6813469B001344DB00E7
:101A78000B445D3303221A70FB685A013B69134417
:101A880003F5A0631946FB685A013B69134403F543
:101A9800A063DB6843F00203CB607B681B68FA68CD
:101AA800D2B21146184605F08EF9FB685A013B6917
:101AB800134403F5A0631A461023936000BF183738
:101AC800BD4680BD80B586B000AF78600B46FB7020
:101AD8007B681B687B617B693B61FB78FB60FB680B
:101AE8005A013B69134403F5A0639B6803F00403A0
:101AF800042B1AD1FB685A013B69134403F5A06310
:101B08001A4604239360FB685A013B69134403F5A2
:101B1800A0631946FB685A013B69134403F5A063A7
:101B2800DB6843F00203CB603CE3FB685A013B6986
:101B3800134403F5A0639B6803F02003202B42D1D4
:101B4800FB685A013B69134403F5A0631A46202336
:101B580093607968FA6813469B001344DB000B44D2
:101B68003D331B78012B40F01D837968FA681346D2
:101B78009B001344DB000B443D3300221A70796844
:101B8800FA6813469B001344DB000B445C330222C3
:101B98001A70FB685A013B69134403F5A0631946A0
:101BA800FB685A013B69134403F5A063DB6843F003
:101BB8000203CB607B681B68FA68D2B211461846EC
:101BC80005F001F9EEE2FB685A013B69134403F59D
:101BD800A0639B6803F04003402B40D17968FA6802
:101BE80013469B001344DB000B445D3304221A7038
:101BF8007968FA6813469B001344DB000B443D33B5
:101C080001221A707968FA6813469B001344DB00B6
:101C18000B44583300221A60FB685A013B6913448D
:101C280003F5A0631946FB685A013B69134403F5A1
:101C3800A063DB6843F00203CB607B681B68FA682B
:101C4800D2B21146184605F0BEF8FB685A013B6946
:101C5800134403F5A0631A4640239360A2E2FB688D
:101C68005A013B69134403F5A0639B6803F40073AE
:101C7800B3F5007F23D1FB685A013B69134403F590
:101C8800A0631946FB685A013B69134403F5A06336
:101C9800DB6843F00203CB607B681B68FA68D2B24A
:101CA8001146184605F08FF8FB685A013B69134442
:101CB80003F5A0631A464FF40073936072E2FB6861
:101CC8005A013B69134403F5A0639B6803F00103C1
:101CD800012B36D17968FA6813469B001344DB0060
:101CE8000B44583300221A60FB685A013B691344BD
:101CF80003F5A0631946FB685A013B69134403F5D1
:101D0800A063DB6843F00203CB607B681B68FA685A
:101D1800D2B21146184605F056F8FB685A013B69DD
:101D2800134403F5A0631A46012393607968FA689F
:101D380013469B001344DB000B445D3301221A70E9
:101D480030E2FB685A013B69134403F5A0639B68C2
:101D580003F00803082B2CD1FB685A013B69134494
:101D680003F5A0631A4608239360FB685A013B6990
:101D7800134403F5A0631946FB685A013B691344F1
:101D880003F5A063DB6843F00203CB607B681B6844
:101D9800FA68D2B21146184605F015F87968FA685B
:101DA80013469B001344DB000B445D3305221A7075
:101DB800F8E1FB685A013B69134403F5A0639B688B
:101DC80003F01003102B56D17968FA6813469B006C
:101DD8001344DB000B44583300221A607968FA6810
:101DE80013469B001344DB000B445D3303221A7037
:101DF8007968FA6813469B001344DB000B443D33B3
:101E08001B78002B14D17968FA6813469B00134499
:101E1800DB000B443C331B78002B09D17968FA6846
:101E280013469B001344DB000B443D3301221A7018
:101E3800FB685A013B69134403F5A0631946FB6824
:101E48005A013B69134403F5A063DB6843F00203BE
:101E5800CB607B681B68FA68D2B21146184604F05A
:101E6800B2FFFB685A013B69134403F5A0631A46A5
:101E78001023936096E1FB685A013B69134403F50C
:101E8800A0639B6803F08003802B2CD1FB685A0168
:101E98003B69134403F5A0631946FB685A013B6983
:101EA800134403F5A063DB6843F00203CB607B684F
:101EB8001B68FA68D2B21146184604F084FF7968A4
:101EC800FA6813469B001344DB000B445D3306227B
:101ED8001A70FB685A013B69134403F5A0631A465C
:101EE800802393605EE1FB685A013B69134403F564
:101EF800A0639B6803F48063B3F5806F36D1FB68F9
:101F08005A013B69134403F5A0631946FB685A015B
:101F18003B69134403F5A063DB6843F00203CB601D
:101F28007B681B68FA68D2B21146184604F04BFF6A
:101F3800FB685A013B69134403F5A0631A46102352
:101F48009360FB685A013B69134403F5A0631A4682
:101F58004FF4806393607968FA6813469B001344D2
:101F6800DB000B445D3308221A701BE1FB685A0141
:101F78003B69134403F5A0639B6803F00203022B3B
:101F880040F01081FB685A013B69134403F5A063D4
:101F98001946FB685A013B69134403F5A063DB68E3
:101FA80023F00203CB607968FA6813469B00134458
:101FB800DB000B445D331B78012B2CD17968FA6860
:101FC80013469B001344DB000B445C3301221A7058
:101FD8007968FA6813469B001344DB000B443F33CF
:101FE8001B78022B40F0C5807968FA6813469B007D
:101FF8001344DB000B4451331B7883F00103D8B240
:102008007968FA6813469B001344DB000B4451338C
:1020180002461A70ADE07968FA6813469B001344CB
:10202800DB000B445D331B78032B0AD17968FA680F
:1020380013469B001344DB000B445C3302221A70E6
:1020480097E07968FA6813469B001344DB000B4459
:102058005D331B78042B0AD17968FA6813469B0014
:102068001344DB000B445C3302221A7081E0796868
:10207800FA6813469B001344DB000B445D331B785E
:10208800052B0AD17968FA6813469B001344DB00D4
:102098000B445C3305221A706BE07968FA681346C2
:1020A8009B001344DB000B445D331B78062B0AD0DE
:1020B8007968FA6813469B001344DB000B445D33D0
:1020C8001B78082B55D17968FA6813469B0013448E
:1020D800DB000B4458331B68591C7868FA681346B0
:1020E8009B001344DB000344583319607968FA688D
:1020F80013469B001344DB000B4458331B68032B27
:1021080014D97968FA6813469B001344DB000B4422
:10211800583300221A607968FA6813469B00134402
:10212800DB000B445C3304221A7009E07968FA6812
:1021380013469B001344DB000B445C3302221A70E5
:10214800FB685A013B69134403F5A0631B68BB6035
:10215800BB6823F08043BB60BB6843F00043BB60AF
:10216800FB685A013B69134403F5A0631A46BB6830
:102178001360FB685A013B69134403F5A0631A46D0
:1021880002239360FB68D8B27968FA6813469B000B
:102198001344DB000B445C331B781A46014678680D
:1021A80007F0B4FD00BF1837BD4680BD80B58AB0C2
:1021B80000AF78607B681B687B627B6A3B627B68E8
:1021C8001B681B6AFB61FB6903F00F03BB61FB69BA
:1021D8005B0C03F00F037B61FB691B09C3F30A0364
:1021E8003B617B69022B03D0052B00F0828083E0E2
:1021F8003B69002B7FD07968BA6913469B0013446A
:10220800DB000B4444331B68002B74D07B681868D0
:102218007968BA6913469B001344DB000B444433C6
:102228001B683A6992B2194604F0D1F97968BA691B
:1022380013469B001344DB000B4444331A683B6984
:10224800D1187868BA6913469B001344DB0003442D
:10225800443319607968BA6913469B001344DB005C
:102268000B444C331A683B69D1187868BA6913462D
:102278009B001344DB0003444C331960BB695A01CB
:102288003B6A134403F5A0631A691D4B1340002BE6
:1022980031D0BB695A013B6A134403F5A0631B683C
:1022A800FB60FB6823F08043FB60FB6843F000435E
:1022B800FB60BB695A013B6A134403F5A0631A46E5
:1022C800FB6813607968BA6913469B001344DB0006
:1022D8000B4450331B7883F00103D8B27968BA698C
:1022E80013469B001344DB000B44503302461A701C
:1022F80001E000BF00E000BF00BF2837BD4680BD39
:102308000000F81F80B586B000AF78607B681B6856
:102318007B617B693B613B6903F588631B68FB60F4
:102328003B6903F588631B68BB60BB6823F02E0319
:10233800BB60FB6803F00203022B13D1FB6803F0B8
:102348000103012B0AD17B681B687A6812689269BD
:1023580022F000529A61786807F0BCFCBB6843F031
:102368000203BB60FB6803F00803082B48D1BB6875
:1023780043F00803BB60FB6803F00403042B29D176
:102388007B689B69022B13D1FB6803F4C023B3F568
:10239800802F06D17B681B680221184604F03CFA9E
:1023A80011E07B681B680121184604F035FA0AE041
:1023B8007B68DB68032B06D13B6903F580631A460B
:1023C8004EF660235360786807F0AEFC786807F033
:1023D80081FC15E0786807F0B5FC3B6903F5886374
:1023E8001A463B6903F588631B6823F02E031360C4
:1023F8007B681B687A681268926942F000529A6199
:10240800FB6803F02003202B03D1BB6843F02003B3
:10241800BB603B6903F588631A46BB68136000BF5D
:102428001837BD4680BD80B582B000AF78607B6844
:10243800002B01D1012380E07B6893F84130DBB2A7
:10244800002B06D17B68002283F84020786806F0CC
:10245800CFFD7B68242283F841207B681B687A685B
:102468001268126822F001021A607B681B687A6899
:10247800526822F070621A617B681B687A68126879
:10248800926822F400429A607B68DB68012B07D1CE
:102498007B681B687A68926842F400429A6006E09A
:1024A8007B681B687A68926842F404429A607B6889
:1024B800DB68022B04D17B681B684FF400625A600A
:1024C8007B681A687B681B685B6843F0007343F499
:1024D800004353607B681B687A681268D26822F4EC
:1024E8000042DA607B681B687A6811697A68526909
:1024F80011437A68926912020A43DA607B681B68A2
:102508007A68D1697A68126A0A431A607B681B681C
:102518007A681268126842F001021A607B68002229
:102528005A647B68202283F841207B6800221A6362
:102538007B68002283F84220002318460837BD46EE
:1025480080BD80B483B000AF786039607B6893F851
:102558004130DBB2202B38D17B6893F84030012B17
:1025680001D1022332E07B68012283F840207B6896
:10257800242283F841207B681B687A6812681268F5
:1025880022F001021A607B681B687A681268126878
:1025980022F480521A607B681B687A681268116896
:1025A8003A680A431A607B681B687A68126812687E
:1025B80042F001021A607B68202283F841207B6880
:1025C800002283F84020002300E0022318460C373D
:1025D800BD465DF8047B704780B485B000AF786075
:1025E80039607B6893F84130DBB2202B39D17B68A6
:1025F80093F84030012B01D1022333E07B6801229C
:1026080083F840207B68242283F841207B681B687C
:102618007A681268126822F001021A607B681B68E7
:102628001B68FB60FB6823F47063FB603B681B025C
:10263800FA681343FB607B681B68FA681A607B685A
:102648001B687A681268126842F001021A607B6897
:10265800202283F841207B68002283F84020002351
:1026680000E0022318461437BD465DF8047B704726
:1026780080B584B000AF78600023BB600023FB60A6
:102688007B68002B01D10123A8E07B6893F83530E3
:10269800DBB2002B06D17B68002283F834207868EF
:1026A80006F052FD7B68022283F835207B681B68A0
:1026B8007A681268126822F001021A600023FB602F
:1026C8000AE07B681A68FB6804339B001344002205
:1026D8005A60FB680133FB60FB680F2BF1D97B68FC
:1026E8001B687A681268926842F004029A607B68F4
:1026F8001A687B681B6859683A4B0B4079684868C8
:102708007968896808437968896A08437968C96A71
:1027180008437968C96908437968096A0843796888
:10272800896908437968496A01430B4353607868AB
:1027380000F05AF87B681B687A681268126822F001
:10274800FE017A68D0687A68126910437A6852691B
:1027580010437A68126B02430A431A607B681B684D
:102768007A681268126842F001021A60FDF702FFE7
:10277800B8600CE0FDF7FEFE0246BB68D31AB3F55D
:102788007A7F04D97B6808229A63032326E07B6852
:102798001B689B6803F00103012BEBD1FDF7EAFEF0
:1027A800B8600CE0FDF7E6FE0246BB68D31AB3F545
:1027B8007A7F04D97B6810229A6303230EE07B6832
:1027C8001B689B6803F01003102BEBD17B68002279
:1027D8009A637B68012283F8352000231846103756
:1027E800BD4680BD0E0000FC80B584B000AF7860A7
:1027F8000023FB60FDF7BEFEF8600CE0FDF7BAFEB3
:102808000246FB68D31AB3F57A7F04D97B680122A4
:102818009A63032307E07B681B689B6803F0200327
:10282800202BEBD1002318461037BD4680BD000091
:1028380080B400AF054A054B1B6843F480731360EE
:1028480000BFBD465DF8047B704700BF00700040C4
:1028580080B400AF044B1B6803F4C0631846BD4640
:102868005DF8047B704700BF0070004080B485B0FD
:1028780000AF78607B68B3F5007F30D1234B1B68CD
:1028880003F4C063B3F5007F38D0204A1F4B1B68A0
:1028980023F4C06343F4007313601D4B1B6832229A
:1028A80002FB03F31B4AA2FB03239B0C0133FB60CF
:1028B80002E0FB68013BFB60144B5B6903F4806337
:1028C800B3F5806F02D1FB68002BF2D10F4B5B6927
:1028D80003F48063B3F5806F10D103230FE00B4B33
:1028E8001B6803F4C063B3F5806F07D0074A074B32
:1028F8001B6823F4C06343F4806313600023184605
:102908001437BD465DF8047B704700BF0070004077
:102918002000002083DE1B4380B400AF054A054B2E
:102928005B6843F48063536000BFBD465DF8047B79
:10293800704700BF0070004080B586B002AF786075
:10294800FDF718FEF8607B68002B01D101236FE0CA
:102958007B6893F83830DBB2012B01D1022367E0A2
:102968007B68012283F838207B6893F83930DBB222
:10297800002B0BD17B68002283F83820786806F09A
:10298800E9FD41F28831786800F058F87B681B68E7
:102998007A681268126822F470617A689268013A5B
:1029A80012020A431A607B681B6C0093FB680022C2
:1029B8002021786800F050F80346FB72FB7A002B60
:1029C80031D17B681A687B681B681B6823F07F43DA
:1029D80023F010037968496808067968C9680143D3
:1029E8000B4313607B681A687B681B685968124B35
:1029F8000B40796809690804796849690843796866
:102A0800896901430B4353607B681B687A681268C5
:102A1800126842F001021A607B680022DA637B6860
:102A2800012283F839207B68002283F83820FB7A5A
:102A380018461037BD4680BDFEF8E0FF80B483B06D
:102A480000AF786039607B683A681A6400BF0C3759
:102A5800BD465DF8047B704780B584B000AFF86070
:102A6800B9603B601346FB711AE0BB69B3F1FF3FE5
:102A780016D0FDF77FFD02463B68D21ABB699A4221
:102A880002D8BB69002B0BD1FB68042283F83920DC
:102A9800FB68DB6B43F00102FB68DA6301230EE09D
:102AA800FB681B689A68BB681340002B14BF01239E
:102AB8000023DBB21A46FB799A42D6D10023184686
:102AC8001037BD4680BD000080B588B000AF786083
:102AD8007B68002B01D1012353E3A34B9B6803F0D0
:102AE8000C03BB61A04BDB6803F003037B617B68CD
:102AF8001B6803F01003002B00F0DF80BB69002B7C
:102B080007D0BB690C2B40F086807B69012B40F015
:102B18008280954B1B6803F00203002B05D07B686D
:102B28009B69002B01D101232BE37B681A6A8E4B2A
:102B38001B6803F00803002B04D08B4B1B6803F0C1
:102B4800F00305E0884BD3F894301B0903F0F00339
:102B58009A4223D97B681B6A184600F0CBFC0346CF
:102B6800002B01D001230CE37F4A7F4B1B6843F005
:102B7800080313607C497C4B1B6823F0F0027B68D8
:102B88001B6A13430B607849774B5B6823F47F42D9
:102B98007B68DB691B0213434B6022E0724A724B6D
:102BA8001B6843F0080313606F496F4B1B6823F0E1
:102BB800F0027B681B6A13430B606B496A4B5B68C6
:102BC80023F47F427B68DB691B0213434B607B68FD
:102BD8001B6A184600F08EFC0346002B01D0012327
:102BE800CFE200F0B3FB01465F4B9B681B0903F083
:102BF8000F035E4AD35C03F01F0321FA03F35C4A18
:102C080013600020FDF784FC0346FB73FB7B002B5D
:102C180052D0FB7BB5E27B689B69002B32D0524ACD
:102C2800514B1B6843F001031360FDF7A3FC3861A7
:102C380008E0FDF79FFC02463B69D31A022B01D935
:102C480003239EE2484B1B6803F00203002BF0D0DD
:102C5800454A454B1B6843F0080313604249424B01
:102C68001B6823F0F0027B681B6A13430B603E4924
:102C78003D4B5B6823F47F427B68DB691B0213438F
:102C88004B601AE0384A384B1B6823F00103136085
:102C9800FDF770FC386108E0FDF76CFC02463B6903
:102CA800D31A022B01D903236BE22F4B1B6803F0C5
:102CB8000203002BF0D100E000BF7B681B6803F023
:102CC8000103002B72D0BB69082B05D0BB690C2B04
:102CD8000ED17B69032B0BD1234B1B6803F4003304
:102CE800002B62D07B685B68002B5ED1012348E231
:102CF8007B685B68B3F5803F06D11B4A1A4B1B689B
:102D080043F4803313601DE07B685B68B3F5A02F44
:102D18000CD1154A144B1B6843F480231360124AE4
:102D2800114B1B6843F4803313600BE00E4A0E4BC3
:102D38001B6823F4803313600B4A0B4B1B6823F486
:102D4800802313607B685B68002B1AD0FDF712FCA8
:102D580038610FE0FDF70EFC02463B69D31A642B7D
:102D680008D903230DE200BF00100240C0A30008E9
:102D780020000020AE4B1B6803F40033002BE9D081
:102D880014E0FDF7F7FB386108E0FDF7F3FB0246B6
:102D98003B69D31A642B01D90323F2E1A44B1B68C6
:102DA80003F40033002BF0D100E000BF7B681B6800
:102DB80003F00203002B60D0BB69042B05D0BB696C
:102DC8000C2B19D17B69022B16D1994B1B6803F484
:102DD8008063002B05D07B68DB68002B01D10123C1
:102DE800CFE19349924B5B6823F0F8527B681B69EB
:102DF8001B0613434B6040E07B68DB68002B23D045
:102E08008B4A8B4B1B6843F480731360FDF7B2FB4E
:102E1800386108E0FDF7AEFB02463B69D31A022B86
:102E280001D90323ADE1824B1B6803F48063002BB7
:102E3800F0D07F497E4B5B6823F0F8527B681B69B2
:102E48001B0613434B6018E0794A794B1B6823F43F
:102E580080731360FDF78EFB386108E0FDF78AFB8D
:102E680002463B69D31A022B01D9032389E1704B2F
:102E78001B6803F48063002BF0D17B681B6803F0A8
:102E88000803002B3CD07B685B69002B1CD0684A88
:102E9800674BD3F8943043F00103C2F89430FDF740
:102EA80069FB386108E0FDF765FB02463B69D31A08
:102EB800022B01D9032364E15D4BD3F8943003F06E
:102EC8000203002BEFD01BE0594A594BD3F894303A
:102ED80023F00103C2F89430FDF74CFB386108E099
:102EE800FDF748FB02463B69D31A022B01D903239D
:102EF80047E14F4BD3F8943003F00203002BEFD196
:102F08007B681B6803F00403002B00F0A5800023F6
:102F1800FB77474B9B6D03F08053002B0DD1444A40
:102F2800434B9B6D43F080539365414B9B6D03F07E
:102F38008053BB60BB680123FB773E4B1B6803F4DF
:102F48008073002B18D13B4A3A4B1B6843F48073BB
:102F58001360FDF70FFB386108E0FDF70BFB024635
:102F68003B69D31A022B01D903230AE1314B1B68B1
:102F780003F48073002BF0D07B689B68012B08D189
:102F88002B4A2B4BD3F8903043F00103C2F8903012
:102F980024E07B689B68052B10D1254A244BD3F885
:102FA800903043F00403C2F89030214A204BD3F804
:102FB800903043F00103C2F890300FE01C4A1C4BDC
:102FC800D3F8903023F00103C2F89030184A184B18
:102FD800D3F8903023F00403C2F890307B689B68E4
:102FE800002B16D0FDF7C6FA38610AE0FDF7C2FAE1
:102FF80002463B69D31A41F28832934201D903232E
:10300800BFE00B4BD3F8903003F00203002BEDD058
:1030180019E0FDF7AFFA38610EE0FDF7ABFA0246AA
:103028003B69D31A41F28832934205D90323A8E0B9
:103038000010024000700040544BD3F8903003F069
:103048000203002BE9D1FB7F012B05D14F4A4F4BDF
:103058009B6D23F0805393657B689B6A002B00F07F
:103068008F80BB690C2B00F089807B689B6A022BE0
:1030780056D1464A454B1B6823F080731360FDF711
:1030880079FA386108E0FDF775FA02463B69D31A08
:10309800022B01D9032374E03C4B1B6803F0007337
:1030A800002BF0D139497B681B6B013B1A017B6807
:1030B8005B6B1B021A437B689B6B1B095B041A43FF
:1030C8007B68DB6A1A437B68DB6B5B08013B5B054B
:1030D8001A437B681B6C5B08013B5B061343CB60A0
:1030E8002A4A2A4B1B6843F080731360274A274BF0
:1030F800DB6843F08073D360FDF73CFA386108E081
:10310800FDF738FA02463B69D31A022B01D903238B
:1031180037E01E4B1B6803F00073002BF0D02FE044
:103128001A4A1A4B1B6823F080731360174B1B68ED
:1031380003F02053002B05D1144A144BDB6823F00D
:103148000303D360114A114BDB6823F0887323F41F
:103158008033D360FDF70EFA386108E0FDF70AFA0C
:1031680002463B69D31A022B01D9032309E0074B16
:103178001B6803F00073002BF0D101E0012300E08D
:10318800002318462037BD4680BD00BF001002400E
:1031980080B584B000AF786039607B68002B01D1BE
:1031A8000123C6E0654B1B6803F007023B689A429F
:1031B80010D26249614B1B6823F007023B68134336
:1031C8000B605E4B1B6803F007023B689A4201D014
:1031D8000123AEE07B681B6803F00103002B4CD091
:1031E8007B685B68032B07D1554B1B6803F00073A2
:1031F800002B21D101239CE07B685B68022B07D15F
:103208004F4B1B6803F40033002B15D1012390E0CA
:103218007B685B68002B07D1494B1B6803F00203EE
:10322800002B09D1012384E0454B1B6803F480631C
:10323800002B01D101237CE04149414B9B6823F0DD
:1032480003027B685B6813438B60FDF793F9F860B2
:103258000AE0FDF78FF90246FB68D31A41F288327B
:10326800934201D9032364E0354B9B6803F00C02B9
:103278007B685B689B009A42EBD17B681B6803F014
:103288000203002B08D02E492D4B9B6823F0F00237
:103298007B689B6813438B60284B1B6803F007020D
:1032A8003B689A4210D92549244B1B6823F0070232
:1032B8003B6813430B60214B1B6803F007023B6814
:1032C8009A4201D0012334E07B681B6803F00403B1
:1032D800002B08D01A491A4B9B6823F4E0627B68DC
:1032E800DB6813438B607B681B6803F00803002BC3
:1032F80009D01349124B9B6823F460527B681B6901
:10330800DB0013438B6000F021F801460C4B9B68EF
:103318001B0903F00F030B4AD35C03F01F0321FAC8
:1033280003F3094A13600020FDF7F2F80346FB7225
:10333800FB7A18461037BD4680BD00BF002002400A
:1033480000100240C0A300082000002080B489B00B
:1033580000AF0023FB610023BB61464B9B6803F071
:103368000C033B61434BDB6803F00303FB603B69E1
:10337800002B05D03B690C2B21D1FB68012B1ED1FA
:103388003C4B1B6803F00803002B07D1394BD3F8DB
:1033980094301B0A03F00F03FB6105E0354B1B68F3
:1033A8001B0903F00F03FB61334AFB6952F8233012
:1033B800FB613B69002B0DD1FB69BB610AE03B69EE
:1033C800042B02D12D4BBB6104E03B69082B01D1D2
:1033D8002B4BBB613B690C2B45D1264BDB6803F0BB
:1033E8000303BB60234BDB681B0903F007030133AE
:1033F8007B60BB68022B02D0032B0DD019E01F4A5B
:103408007B68B2FBF3F31B4AD268120A02F07F0210
:1034180002FB03F37B6119E0194A7B68B2FBF3F303
:10342800144AD268120A02F07F0202FB03F37B619E
:103438000CE0FA697B68B2FBF3F30E4AD268120A11
:1034480002F07F0202FB03F37B6100BF094BDB68DC
:103458005B0E03F0030301335B003B607A693B6852
:10346800B2FBF3F3BB61BB6918462437BD465DF870
:10347800047B704700100240D8A300080024F40021
:1034880000127A0080B400AF034B1B681846BD4693
:103498005DF8047B704700BF2000002080B500AFB6
:1034A800FFF7F0FF0146064B9B681B0A03F0070372
:1034B800044AD35C03F01F0321FA03F3184680BDC6
:1034C80000100240D0A3000880B500AFFFF7DAFF74
:1034D8000146064B9B68DB0A03F00703044AD35CEA
:1034E80003F01F0321FA03F3184680BD00100240C1
:1034F800D0A3000880B586B000AF786000233B6198
:103508002A4B9B6D03F08053002B03D0FFF7A0F9E3
:10351800786114E0254A254B9B6D43F080539365F1
:10352800224B9B6D03F08053FB60FB68FFF790F91B
:1035380078611E4A1D4B9B6D23F0805393657B6910
:10354800B3F5007F0BD17B68802B19D97B68A02B42
:1035580002D902233B6113E001233B6110E07B6841
:10356800802B02D903233B610AE07B68802B02D1C0
:1035780002233B6104E07B68702B01D101233B618E
:103588000B490B4B1B6823F007023B6913430B6085
:10359800074B1B6803F007023B699A4201D00123DD
:1035A80000E0002318461837BD4680BD00100240D1
:1035B8000020024080B586B000AF78600023FB741D
:1035C8000023BB747B681B6803F40063002B3FD0A7
:1035D8007B685B6EB3F5800F1CD0B3F5800F02D803
:1035E800002B0ED01FE0B3F5000F03D0B3F5400F4A
:1035F8001CD018E0854A854BDB6843F48033D360E0
:1036080015E07B6804330021184600F041FF0346AB
:10361800FB740CE07B6820330021184601F028F881
:103628000346FB7403E00123FB7400E000BFFB7C4E
:10363800002B0BD17549754BD3F8883023F4400221
:103648007B685B6E1343C1F8883001E0FB7CBB7478
:103658007B681B6803F48053002B3FD07B689B6E0C
:10366800B3F1807F1CD0B3F1807F02D8002B0ED03D
:103678001FE0B3F1007F03D0B3F1407F1CD018E006
:10368800624A624BDB6843F48033D36015E07B68A1
:1036980004330021184600F0FBFE0346FB740CE0DF
:1036A8007B6820330021184600F0E2FF0346FB74D4
:1036B80003E00123FB7400E000BFFB7C002B0BD16F
:1036C8005249524BD3F8883023F040727B689B6E86
:1036D8001343C1F8883001E0FB7CBB747B681B682E
:1036E80003F40033002B00F0A08000237B74474BC9
:1036F8009B6D03F08053002B01D1012300E00023D0
:10370800002B0DD0414A414B9B6D43F0805393658C
:103718003E4B9B6D03F08053BB60BB6801237B74F9
:103728003B4A3B4B1B6843F480731360FCF722FF52
:10373800F86009E0FCF71EFF0246FB68D31A022B6B
:1037480002D90323FB7405E0314B1B6803F4807333
:10375800002BEFD0FB7C002B5CD12C4BD3F89030A6
:1037680003F440737B617B69002B1FD07B68D3F81F
:1037780084207B699A4219D0244BD3F8903023F4E3
:1037880040737B61214A214BD3F8903043F4803356
:10379800C2F890301D4A1D4BD3F8903023F4803383
:1037A800C2F89030194A7B69C2F890307B6903F0FF
:1037B8000103002B16D0FCF7DDFEF8600BE0FCF7E8
:1037C800D9FE0246FB68D31A41F28832934202D9E5
:1037D8000323FB7406E00D4BD3F8903003F002038B
:1037E800002BECD0FB7C002B0CD10849074BD3F8FD
:1037F800903023F440727B68D3F884301343C1F8C7
:10380800903009E0FB7CBB7406E000BF001002406A
:1038180000700040FB7CBB747B7C012B05D19E4A69
:103828009D4B9B6D23F0805393657B681B6803F069
:103838000103002B0AD09849974BD3F8883023F01E
:1038480003027B689B6B1343C1F888307B681B6855
:1038580003F00203002B0AD08F498F4BD3F888302E
:1038680023F00C027B68DB6B1343C1F888307B685C
:103878001B6803F00403002B0AD08749864BD3F852
:10388800883023F030027B681B6C1343C1F8883002
:103898007B681B6803F00803002B0AD07E497E4B27
:1038A800D3F8883023F0C0027B685B6C1343C1F8FF
:1038B80088307B681B6803F01003002B0AD0764918
:1038C800754BD3F8883023F440727B689B6C1343A4
:1038D800C1F888307B681B6803F02003002B0AD0EE
:1038E8006D496D4BD3F8883023F440627B68DB6CFC
:1038F8001343C1F888307B681B6803F40073002BFE
:103908000AD06549644BD3F8883023F440227B6899
:10391800DB6D1343C1F888307B681B6803F4806350
:10392800002B0AD05C495C4BD3F8883023F4401252
:103938007B681B6E1343C1F888307B681B6803F0F3
:103948004003002B0AD05449534BD3F8883023F452
:1039580040527B681B6D1343C1F888307B681B6835
:1039680003F08003002B0AD04B494B4BD3F8883027
:1039780023F440427B685B6D1343C1F888307B6851
:103988001B6803F48073002B0AD04349424BD3F8D9
:10399800883023F440327B689B6D1343C1F888302C
:1039A8007B681B6803F40053002B28D03A493A4B34
:1039B800D3F8883023F040627B68DB6E1343C1F88C
:1039C80088307B68DB6EB3F1006F06D1324A324B28
:1039D800DB6843F48013D36011E07B68DB6EB3F1DE
:1039E800806F0CD17B6804330121184600F050FD2C
:1039F8000346FB74FB7C002B01D0FB7CBB747B680B
:103A08001B6803F40023002B28D02349224BD3F84A
:103A1800883023F040627B681B6F1343C1F88830FD
:103A28007B681B6FB3F1006F06D11B4A1A4BDB682A
:103A380043F48013D36011E07B681B6FB3F1806F90
:103A48000CD17B6804330121184600F021FD0346A0
:103A5800FB74FB7C002B01D0FB7CBB747B681B6870
:103A680003F48023002B2BD00B490B4BD3F8883061
:103A780023F040627B685B6F1343C1F888307B6832
:103A88005B6FB3F1006F09D1034A034BDB6843F462
:103A98008013D36014E000BF001002407B685B6FA6
:103AA800B3F1806F0CD17B6804330121184600F014
:103AB800EFFC0346FB74FB7C002B01D0FB7CBB7442
:103AC8007B681B6803F48043002B2FD02B492B4BBA
:103AD800D3F8883023F040527B689B6F1343C1F8BA
:103AE80088307B689B6FB3F1805F0DD17B680433AE
:103AF8000221184600F0CCFC0346FB74FB7C002B2B
:103B080014D0FB7CBB7411E07B689B6FB3F1005F42
:103B18000CD17B6820330221184600F0A9FD03462A
:103B2800FB74FB7C002B01D0FB7CBB747B681B689F
:103B380003F40043002B0AD01049104BD3F8883007
:103B480023F080427B68DB6F1343C1F888307B68C1
:103B58001B6803F48033002B0BD00849074BD3F8BC
:103B6800883023F000427B68D3F880301343C1F8D3
:103B78008830BB7C18461837BD4680BD001002400F
:103B880080B588B000AF78600023FB617B68B3F52F
:103B9800003F37D1B84BD3F8903003F440737B61C2
:103BA8007B69B3F5007F14D0B3F5407F1ED0B3F521
:103BB800807F01D000F053BCAF4BD3F8903003F0B6
:103BC8000203022B40F046844FF40043FB6100F0EF
:103BD80041BCA94BD3F8943003F00203022B40F008
:103BE8003B844FF4FA43FB6100F036BCA24B1B68E0
:103BF80003F40033B3F5003F40F030849F4BFB6182
:103C080000F02CBC9C4BDB6803F003033B613B6971
:103C1800022B23D0032B2ED0012B39D1964B1B68B6
:103C280003F00203022B16D1934B1B6803F0080321
:103C3800002B05D0904B1B681B0903F00F0305E010
:103C48008D4BD3F894301B0A03F00F038C4A52F8BB
:103C58002330BB611FE00023BB611CE0864B1B685F
:103C680003F48063B3F5806F02D1864BBB6112E029
:103C78000023BB610FE0804B1B6803F40033B3F5EE
:103C8800003F02D1804BBB6105E00023BB6102E02D
:103C98000023BB6100BF7B68B3F5007F00F037836A
:103CA800B3F5007F25D8102B00F0DF81102B0FD83B
:103CB800022B00F02881022B03D8012B00F0EC80A6
:103CC800CDE3042B00F06981082B00F09A81C6E34C
:103CD800402B00F0B382402B03D8202B00F0FD814D
:103CE800BDE3802B00F0CD82B3F5807F00F0EC823D
:103CF800B5E3B3F5804F00F02D82B3F5804F11D8AE
:103D0800B3F5006F21D0B3F5006F04D8B3F5806F19
:103D180000F03E83A3E3B3F5805F1DD0B3F5005FE9
:103D280021D09CE3B3F5803F00F07782B3F5803F64
:103D380004D8B3F5004F00F0718390E3B3F5802FFA
:103D480011D0B3F5002F0ED089E3B9694FF40060A4
:103D580000F068FDF86182E3B9694FF4805000F023
:103D680061FDF8617BE3444BD3F8883003F040638E
:103D78007B617B69B3F1006F23D0B3F1406F03D04F
:103D8800B3F1806F4AD086E03B4B1B6803F0020317
:103D9800022B7BD1384B1B6803F00803002B05D09E
:103DA800354B1B681B0903F00F0305E0324BD3F8B2
:103DB80094301B0A03F00F03314A52F82330FB6199
:103DC80064E02D4B1B6803F00073B3F1007F5FD1F3
:103DD800294BDB6803F48013B3F5801F58D1264BB9
:103DE800DB681B0903F007030133BA69B2FBF3F37D
:103DF800BB61214BDB681B0A03F07F03FB60BB69D7
:103E0800FA6802FB03F21C4BDB685B0D03F003034B
:103E180001335B00B2FBF3F3FB6139E0164B1B681F
:103E280003F00063B3F1006F34D1134B1B6903F443
:103E38008013B3F5801F2DD10F4BDB681B0903F0EE
:103E480007030133BA69B2FBF3F3BB610A4B1B6981
:103E58001B0A03F07F03FB60BB69FA6802FB03F2ED
:103E6800054B1B695B0D03F0030301335B00B2FBD9
:103E7800F3F3FB610EE000BF0010024090D0030096
:103E8800D8A300080024F40000127A0000BFE6E27C
:103E980000BFE4E200BFE2E2AC4BD3F8883003F0A5
:103EA80003037B617B69032B27D801A252F823F017
:103EB800C93E0008D13E0008D93E0008ED3E000882
:103EC800FFF702FBF8611DE0FFF740FAF86119E01F
:103ED8009E4B1B6803F48063B3F5806F0FD19C4B36
:103EE800FB610CE0994BD3F8903003F00203022BEE
:103EF80007D14FF40043FB6103E000BFAFE200BF0E
:103F0800ADE200BFABE2914BD3F8883003F00C036D
:103F18007B617B690C2B3AD801A252F823F000BFD1
:103F28005D3F0008973F0008973F0008973F00084B
:103F3800653F0008973F0008973F0008973F000833
:103F48006D3F0008973F0008973F0008973F00081B
:103F5800813F0008FFF7A2FAF8611DE0FFF7F6F9C4
:103F6800F86119E0794B1B6803F48063B3F5806F3F
:103F78000FD1774BFB610CE0744BD3F8903003F012
:103F88000203022B07D14FF40043FB6103E000BF9B
:103F980065E200BF63E200BF61E26C4BD3F8883092
:103FA80003F030037B617B69102B0DD0102B02D8F6
:103FB800002B05D024E0202B0AD0302B12D01FE094
:103FC800FFF76CFAF8611BE0FFF7C0F9F86117E03A
:103FD8005E4B1B6803F48063B3F5806F0DD15C4BB7
:103FE800FB610AE0594BD3F8903003F00203022B2F
:103FF80005D14FF40043FB6101E000BF2FE200BF91
:104008002DE2524BD3F8883003F0C0037B617B6903
:10401800402B0DD0402B02D8002B05D024E0802B5C
:104028000AD0C02B12D01FE0FFF738FAF8611BE066
:10403800FFF78CF9F86117E0444B1B6803F48063C1
:10404800B3F5806F0DD1424BFB610AE03F4BD3F8CB
:10405800903003F00203022B05D14FF40043FB61BB
:1040680001E000BFFBE100BFF9E1384BD3F888302D
:1040780003F440737B617B69B3F5807F10D0B3F59F
:10408800807F02D8002B07D026E0B3F5007F0BD045
:10409800B3F5407F12D01FE0FFF700FAF8611BE08C
:1040A800FFF754F9F86117E0284B1B6803F48063A5
:1040B800B3F5806F0DD1264BFB610AE0234BD3F893
:1040C800903003F00203022B05D14FF40043FB614B
:1040D80001E000BFC3E100BFC1E11C4BD3F8883049
:1040E80003F440637B617B69B3F5806F10D0B3F54F
:1040F800806F02D8002B07D026E0B3F5006F0BD0F5
:10410800B3F5406F12D01FE0FFF7C8F9F8611BE064
:10411800FFF71CF9F86117E00C4B1B6803F4806388
:10412800B3F5806F0DD10A4BFB610AE0074BD3F85A
:10413800903003F00203022B05D14FF40043FB61DA
:1041480001E000BF8BE100BF89E100BF0010024021
:104158000024F400AE4BD3F8883003F040537B6161
:104168007B69B3F1005F2FD0B3F1405F03D0B3F1A7
:10417800805F04D050E0FFF7E9F8F8614CE0A44B09
:104188001B6903F08073002B43D0A14BDB681B092C
:1041980003F007030133BA69B2FBF3F3BB619C4B2D
:1041A8001B691B0A03F07F03FB60BB69FA6802FB0B
:1041B80003F2974B1B695B0E03F0030301335B00AB
:1041C800B2FBF3F3FB6124E0914B5B6903F080736E
:1041D800002B20D08E4BDB681B0903F0070301334B
:1041E800BA69B2FBF3F3BB61894B5B691B0A03F045
:1041F8007F03FB60BB69FA6802FB03F2844B5B69CF
:104208005B0E03F0030301335B00B2FBF3F3FB61C6
:1042180001E000BF23E100BF21E17D4BD3F88830E6
:1042280003F000437B617B69002B03D1FFF74CF956
:10423800F86114E1FFF78AF8F86110E1744BD3F8DC
:10424800883003F440537B617B69B3F5805F09D004
:10425800B3F5005F0AD0002B00D011E0FFF71EF97C
:10426800F8610DE0FFF772F8F86109E0684B1B6828
:1042780003F48063B3F5806F01D1664BFB6100BF27
:10428800EDE0634BD3F8883003F440437B617B69EE
:10429800B3F5804F09D0B3F5004F0AD0002B00D0FA
:1042A80011E0FFF7FBF8F8610DE0FFF74FF8F86150
:1042B80009E0574B1B6803F48063B3F5806F01D1A5
:1042C800544BFB6100BFCAE0514BD3F8883003F46C
:1042D80040337B617B69B3F5803F09D0B3F5003F7C
:1042E8000AD0002B00D011E0FFF7D8F8F8610DE0F4
:1042F800FFF72CF8F86109E0454B1B6803F480636D
:10430800B3F5806F01D1434BFB6100BFA7E0404B81
:10431800D3F8883003F440237B617B69B3F5802FA1
:1043280010D0B3F5802F02D8002B07D02FE0B3F5BB
:10433800002F12D0B3F5402F19D028E0FFF7AEF8C0
:10434800F86124E0324BD3F8943003F00203022BD7
:1043580018D14FF4FA43FB6114E02D4B1B6803F4AA
:104368008063B3F5806F0FD12A4BFB610CE0284BBB
:10437800D3F8903003F00203022B07D14FF4004327
:10438800FB6103E000BF6AE000BF68E000BF66E0D1
:104398001F4BD3F8883003F440137B617B69B3F576
:1043A800801F10D0B3F5801F02D8002B07D034E04F
:1043B800B3F5001F12D0B3F5401F19D02DE0FFF759
:1043C8006DF8F86129E0124BD3F8943003F002033A
:1043D800022B18D14FF4FA43FB6114E00C4B1B6815
:1043E80003F48063B3F5806F0FD10A4BFB610CE0D7
:1043F800074BD3F8903003F00203022B0CD14FF493
:104408000043FB6108E000BF29E000BF27E000BFD0
:10441800001002400024F40000BF20E0124BD3F843
:10442800883003F080437B617B69002B03D0B3F1B4
:10443800804F04D00DE0FFF731F8F86109E00A4B2E
:104448001B6803F48063B3F5806F01D1074BFB61F0
:1044580000BF04E000BF02E000BF00E000BFFB694E
:1044680018462037BD4680BD001002400024F400E5
:1044780080B400AF054A054B1B6843F00403136082
:1044880000BFBD465DF8047B704700BF00100240C6
:1044980080B584B000AF786039600023FB73734B3C
:1044A800DB6803F00303002B18D0704BDB6803F0C4
:1044B80003027B681B689A420DD17B681B68002B3E
:1044C80009D06A4BDB681B0903F007035A1C7B6899
:1044D8005B689A4244D00123FB7341E07B681B6808
:1044E800022B0CD0032B13D0012B20D15F4B1B6860
:1044F80003F00203002B1DD10123FB731AE05B4B71
:104508001B6803F48063002B16D10123FB7313E0AF
:10451800564B1B6803F40033002B0FD1534B1B6819
:1045280003F48023002B09D10123FB7306E0012348
:10453800FB7304E000BF02E000BF00E000BFFB7BAC
:10454800002B0DD14948494BDB6823F073027B6887
:1045580019687B685B68013B1B010B431343C3600D
:10456800FB7B002B7DD1414A404B1B6823F08063C5
:104578001360FBF7FFFFB86009E0FBF7FBFF02469B
:10458800BB68D31A022B02D90323FB7305E0374B10
:104598001B6803F00063002BEFD1FB7B002B60D17D
:1045A8003B68002B11D13148304B1B6923F41F3372
:1045B80023F440737A68926811027A68D268120903
:1045C80052040A431343036127E03B68012B12D1CD
:1045D8002648264B1B6923F4C00323F4FE437A685C
:1045E800926811027A6812695208013A52050A4320
:1045F8001343036111E01D481C4B1B6923F0C06382
:1046080023F4FE437A68926811027A685269520864
:10461800013A52060A4313430361144A134B1B68B9
:1046280043F080631360FBF7A5FFB86009E0FBF770
:10463800A1FF0246BB68D31A022B02D90323FB73DE
:1046480005E00A4B1B6803F00063002BEFD0FB7BEF
:10465800002B06D10549054B1A697B689B691343F2
:104668000B61FB7B18461037BD4680BD0010024029
:1046780080B584B000AF786039600023FB73684B65
:10468800DB6803F00303002B18D0654BDB6803F0ED
:1046980003027B681B689A420DD17B681B68002B5C
:1046A80009D05F4BDB681B0903F007035A1C7B68C2
:1046B8005B689A4244D00123FB7341E07B681B6826
:1046C800022B0CD0032B13D0012B20D1544B1B6889
:1046D80003F00203002B1DD10123FB731AE0504B9A
:1046E8001B6803F48063002B16D10123FB7313E0CE
:1046F8004B4B1B6803F40033002B0FD1484B1B684E
:1047080003F48023002B09D10123FB7306E0012366
:10471800FB7304E000BF02E000BF00E000BFFB7BCA
:10472800002B0DD13E483E4BDB6823F073027B68BB
:1047380019687B685B68013B1B010B431343C3602B
:10474800FB7B002B67D1364A354B1B6823F080531F
:104758001360FBF70FFFB86009E0FBF70BFF024699
:10476800BB68D31A022B02D90323FB7305E02C4B39
:104778001B6803F00053002BEFD1FB7B002B4AD1C1
:104788003B68002B11D12648254B5B6923F41F3366
:1047980023F440737A68926811027A68D268120921
:1047A80052040A431343436111E01D481C4B5B69E3
:1047B80023F0C06323F4FE437A68926811027A6892
:1047C80012695208013A52060A4313434361144AD4
:1047D800134B1B6843F080531360FBF7CBFEB860A4
:1047E80009E0FBF7C7FE0246BB68D31A022B02D9C1
:1047F8000323FB7305E00A4B1B6803F00053002BEF
:10480800EFD0FB7B002B06D10549054B5A697B6825
:104818005B6913434B61FB7B18461037BD4680BD6F
:104828000010024080B489B000AF7860396000237E
:10483800FB610023BB6100237B617B68B3F5006FDC
:104848000CD1624BD3F8883003F44003BB61BB69D9
:10485800B3F5400F12D15E4BFB610FE07B68B3F5F7
:10486800805F0BD1594BD3F8883003F04073BB619C
:10487800BB69B3F1407F01D1554BFB61FB69002B4C
:1048880040F09C803B683B61BB69B3F5000F03D0E7
:10489800BB69B3F1007F2DD14C4BDB6803F4803347
:1048A800002B00F08B80494BDB681B0903F00703E2
:1048B80001333A69B2FBF3F33B61444BDB681B0AF3
:1048C80003F07F03FB607B69002B0AD13F4BDB6859
:1048D80003F40033002B02D011237B6101E007238E
:1048E8007B613B69FA6802FB03F27B69B2FBF3F375
:1048F800FB6163E0BB69002B2CD1344B1B6903F4CB
:104908008033002B5AD0314BDB681B0903F00703B7
:1049180001333A69B2FBF3F33B612C4B1B691B0A69
:1049280003F07F03FB607B69002B0AD1274B1B69CF
:1049380003F40033002B02D011237B6101E007232D
:104948007B613B69FA6802FB03F27B69B2FBF3F314
:10495800FB6133E0BB69B3F5800F03D0BB69B3F1EA
:10496800807F2BD1194B5B6903F48033002B25D052
:10497800164BDB681B0903F0070301333A69B2FBE6
:10498800F3F33B61114B5B691B0A03F07F03FB6088
:104998007B69002B0AD10D4B5B6903F40033002BB4
:1049A80002D011237B6101E007237B613B69FA6830
:1049B80002FB03F27B69B2FBF3F3FB61FB69184668
:1049C8002437BD465DF8047B704700BF00100240E5
:1049D80068FF1F0080B588B000AF78607B68002B47
:1049E80001D101234AE17B6893F87D30DBB2002BCB
:1049F80006D17B68002283F87C20786804F074FE76
:104A0800786800F04DF90346002B01D0012335E109
:104A18007B68022283F87D207B68DB68012B07D046
:104A2800012B02D3022B06D008E00023FB6108E02B
:104A38001023FB6105E02023FB6102E00023FB61FA
:104A480000BF7B689B68032B1DD801A252F823F096
:104A5800694A00086F4A0008774A00087F4A000838
:104A680000237B6112E04FF480637B610EE04FF41A
:104A780000637B610AE04FF400637B61FB6943F0EC
:104A88000103FB6102E000237B6100BF7B681B68B8
:104A98007C4A934204D07B681B687B4A934203D1CB
:104AA8007A4AFB69136002E0794AFB6913607B6804
:104AB800DB69002B38D07B681B68724A934204D0AC
:104AC8007B681B68704A934205D14FF40060FFF77A
:104AD80057F8386104E04FF48050FFF751F8386117
:104AE8003A6913469B0013445B001A467B68DB69EE
:104AF8005B02B2FBF3F3FB60FB68664AA2FB03238D
:104B0800DA087B681A62F968624BA3FB0123DA08AA
:104B180013469B0013445B00CA1A082A04D97B6811
:104B28001B6A5A1C7B681A627B685B68002B03D07F
:104B38007B685B68022B09D17B68DB6B012B01D199
:104B4800002301E04FF40073BB6108E07B68DB6B76
:104B5800012B02D14FF4007300E00023BB617B6896
:104B68001A687B681B6819684B4B0B4013607B689D
:104B78001B687A68126811687A6850687A68126BDC
:104B880010437A68526B10437A68926B1043BA6983
:104B980010437A6910437A68526A10437A68126936
:104BA80010437A68526910437A68126A1205024300
:104BB8000A431A607B681A687B681B685B6823F481
:104BC800604323F00F0353607B681B687A681268A0
:104BD80051687A6890697A68926A10437A68D26AEA
:104BE80002430A435A607B681A687B681B689968A5
:104BF8002A4B0B4093607B681B687A68126891683F
:104C08007A68126C501E7A68126D10437A68926C3A
:104C180010437A68D26C10437A68526C013A1202D7
:104C280002430A439A607B681A687B681B68D968E4
:104C38004FF220030B40D3607B681B687A681268C8
:104C4800D1687A68506D7A68926D10437A68126EEE
:104C5800120410437A68D26D013A120202430A43E1
:104C6800DA607B680022C3F880207B68012283F821
:104C78007D207B68002283F87C200023184620379B
:104C8800BD4680BD045401402454014000540140F5
:104C980000580140CDCCCCCC10C005FF0080F8FFF7
:104CA80090B484B000AF7860154B1B68154AA2FB1E
:104CB80003231B0B9C000023FB737B681B687A682B
:104CC8001268126822F480321A60002C0AD17B68BC
:104CD800D3F8803043F040027B68C3F88020032378
:104CE800FB7307E0013C7B681B681B6803F4803397
:104CF800002BEAD1FB7B18461037BD4690BC7047A5
:104D0800200000201BECCB9580B584B000AF786004
:104D18007B68002B01D101237AE07B6800229A622C
:104D28007B6893F85D30DBB2002B06D17B680022EC
:104D380083F85C20786804F08DFD7B68022283F894
:104D48005D207B681B687A681268126822F040024E
:104D58001A607B68DB68B3F5E06F02D90023FB605B
:104D680002E04FF48053FB607B68DB68B3F5706F3B
:104D780007D07B68DB68B3F5E06F02D07B68002260
:104D88009A627B681B6B002B0BD17B68DB68B3F5E1
:104D9800E06F03D97B6802221A6302E07B68012274
:104DA8001A637B681B687A6851687A68926811434D
:104DB8007A68126911437A68526911437A6892696C
:104DC80002F4007211437A68D26911437A68126A50
:104DD80011437A68926A0A431A607B681B687A688A
:104DE8009269120C02F004017A68526A11437A68D7
:104DF800526B11437A68D2681143FA680A435A60C1
:104E08007B6800221A667B68012283F85D200023F4
:104E180018461037BD4680BD80B588B000AFF86031
:104E2800B9603B601346FB800023FB77FB6893F86F
:104E38005C30012B01D102234EE1FB68012283F88B
:104E48005C20FBF797FBB861FB88FB82FB6893F853
:104E58005D30DBB2012B02D00223FB7733E1BB6864
:104E6800002B02D0FB88002B02D10123FB772AE11B
:104E7800FB68032283F85D20FB6800221A66FB6842
:104E8800BA689A63FB68FA889A87FB68FA88DA87AF
:104E9800FB6800221A64FB680022A3F84420FB6820
:104EA8000022A3F84620FB6800221A65FB6800224E
:104EB800DA64FB689B68B3F5004F07D1FB681B6891
:104EC800FA681268126842F480421A60FB681B682C
:104ED8001B6803F04003402B07D0FB681B68FA6887
:104EE8001268126842F040021A60FB68DB68B3F58A
:104EF800E06F4BD9FB685B68002B02D0FB8A012B63
:104F08003ED1FB681B68FA68926B1288DA60FB680E
:104F18009B6B9A1CFB689A63FB68DB8F9BB2013B17
:104F28009AB2FB68DA872BE0FB681B689B6803F082
:104F38000203022B12D1FB681B68FA68926B128875
:104F4800DA60FB689B6B9A1CFB689A63FB68DB8FD3
:104F58009BB2013B9AB2FB68DA8711E0FBF70AFBC8
:104F68000246BB69D21A3B689A4203D33B68B3F145
:104F7800FF3F02D13B68002B02D10323FB77A2E05D
:104F8800FB68DB8F9BB2002BCED17CE0FB685B68B3
:104F9800002B02D0FB8A012B70D1FB68DB8F9BB200
:104FA800012B12D9FB681B68FA68926B1288DA60C9
:104FB800FB689B6B9A1CFB689A63FB68DB8F9BB250
:104FC800023B9AB2FB68DA8758E0FB681B680C332F
:104FD800FA68926B12781A70FB689B6B5A1CFB6814
:104FE8009A63FB68DB8F9BB2013B9AB2FB68DA8756
:104FF80044E0FB681B689B6803F00203022B2BD17B
:10500800FB68DB8F9BB2012B12D9FB681B68FA681F
:10501800926B1288DA60FB689B6B9A1CFB689A6338
:10502800FB68DB8F9BB2023B9AB2FB68DA8725E00C
:10503800FB681B680C33FA68926B12781A70FB686D
:105048009B6B5A1CFB689A63FB68DB8F9BB2013B26
:105058009AB2FB68DA8711E0FBF78CFA0246BB6963
:10506800D21A3B689A4203D33B68B3F1FF3F02D19F
:105078003B68002B02D10323FB7724E0FB68DB8F1E
:105088009BB2002BB5D1BA693968F86800F08CFC7E
:105098000346002B02D0FB6820221A66FB689B6837
:1050A800002B0AD100233B61FB681B68DB683B616E
:1050B800FB681B689B683B613B69FB681B6E002BA8
:1050C80001D00123FB77FB68012283F85D20FB6890
:1050D800002283F85C20FB7F18462037BD4680BD40
:1050E80080B588B002AFF860B9603B601346FB80BA
:1050F8000023FB75FB685B68B3F5827F12D1FB6800
:105108009B68002B0ED1FB68042283F85D20FA8887
:105118003B6800931346BA68B968F86800F005F967
:105128000346FEE0FB6893F85C30012B01D10223B3
:10513800F7E0FB68012283F85C20FBF71BFA386173
:10514800FB6893F85D30DBB2012B02D00223FB75BC
:10515800DEE0BB68002B02D0FB88002B02D10123C4
:10516800FB75D5E0FB68042283F85D20FB6800220C
:105178001A66FB68BA681A64FB68FA88A3F84420C0
:10518800FB68FA88A3F84620FB6800229A63FB684C
:1051980000229A87FB680022DA87FB680022DA641B
:1051A800FB6800221A65FB68DB68B3F5E06F08D975
:1051B800FB681B68FA681268526822F480525A60C9
:1051C80007E0FB681B68FA681268526842F480526C
:1051D8005A60FB689B68B3F5004F07D1FB681B68F2
:1051E800FA681268126822F480421A60FB681B6829
:1051F8001B6803F04003402B07D0FB681B68FA6864
:105208001268126842F040021A60FB68DB68B3F566
:10521800E06F66D82FE0FB681B689B6803F001030A
:10522800012B16D1FB681B6CFA6812680C321278D5
:10523800D2B21A70FB681B6C5A1CFB681A64FB68B4
:10524800B3F846309BB2013B9AB2FB68A3F84620FC
:1052580011E0FBF78FF902463B69D21A3B689A4284
:1052680003D33B68B3F1FF3F02D13B68002B02D167
:105278000323FB754CE0FB68B3F846309BB2002B68
:10528800C9D134E0FB681B689B6803F00103012B5C
:1052980015D1FB681B6CFA681268D26892B21A8042
:1052A800FB681B6C9A1CFB681A64FB68B3F84630F1
:1052B8009BB2013B9AB2FB68A3F8462011E0FBF7CA
:1052C80059F902463B69D21A3B689A4203D33B68B4
:1052D800B3F1FF3F02D13B68002B02D10323FB75DA
:1052E80016E0FB68B3F846309BB2002BCAD13A6986
:1052F8003968F86800F000FB0346002B02D0FB6811
:1053080020221A66FB681B6E002B01D00123FB7557
:10531800FB68012283F85D20FB68002283F85C208B
:10532800FB7D18461837BD4680BD80B58AB000AFF2
:10533800F860B9607A607B8001237B62002387F87C
:105348002330FB6893F85C30012B01D10223F8E18C
:10535800FB68012283F85C20FBF70CF9F861FB6815
:1053680093F85D30FB76FB685B687B617B887B82AA
:105378007B883B82FB7E012B0ED07B69B3F5827F55
:1053880006D1FB689B68002B02D1FB7E042B03D05F
:10539800022387F82330CAE1BB68002B05D07B685D
:1053A800002B02D07B88002B03D1012387F8233000
:1053B800BDE1FB6893F85D30DBB2042B03D0FB68DA
:1053C800052283F85D20FB6800221A66FB687A686C
:1053D8001A64FB687A88A3F84620FB687A88A3F8E1
:1053E8004420FB68BA689A63FB687A88DA87FB68A6
:1053F8007A889A87FB680022DA64FB6800221A65BB
:10540800FB68DB68B3F5E06F02D83B8A012B08D94B
:10541800FB681B68FA681268526822F480525A6066
:1054280007E0FB681B68FA681268526842F4805209
:105438005A60FB681B681B6803F04003402B07D0C9
:10544800FB681B68FA681268126842F040021A602A
:10545800FB68DB68B3F5E06F7CD9FB685B68002B01
:1054680002D07B8A012B69D1FB681B68FA68926BB2
:105478001288DA60FB689B6B9A1CFB689A63FB686E
:10548800DB8F9BB2013B9AB2FB68DA8756E0FB6878
:105498001B689B6803F00203022B1BD1FB68DB8FA0
:1054A8009BB2002B16D07B6A012B13D1FB681B68BB
:1054B800FA68926B1288DA60FB689B6B9A1CFB682F
:1054C8009A63FB68DB8F9BB2013B9AB2FB68DA8771
:1054D80000237B62FB681B689B6803F00103012BB8
:1054E8001CD1FB68B3F846309BB2002B16D0FB6882
:1054F8001B6CFA681268D26892B21A80FB681B6C3F
:105508009A1CFB681A64FB68B3F846309BB2013BEF
:105518009AB2FB68A3F8462001237B62FBF72AF8BE
:105528000246FB69D21A3B6B9A4207D33B6BB3F135
:10553800FF3F03D0032387F82330F8E0FB68DB8FB5
:105548009BB2002BA3D1FB68B3F846309BB2002B6B
:105558009DD1DEE0FB685B68002B03D07B8A012BC2
:1055680040F0CA80FB68DB8F9BB2012B12D9FB6825
:105578001B68FA68926B1288DA60FB689B6B9A1C4E
:10558800FB689A63FB68DB8F9BB2023B9AB2FB68AD
:10559800DA87B1E0FB681B680C33FA68926B127803
:1055A8001A70FB689B6B5A1CFB689A63FB68DB8F5D
:1055B8009BB2013B9AB2FB68DA879DE0FB681B68E7
:1055C8009B6803F00203022B34D1FB68DB8F9BB28C
:1055D800002B2FD07B6A012B2CD1FB68DB8F9BB271
:1055E800012B12D9FB681B68FA68926B1288DA6083
:1055F800FB689B6B9A1CFB689A63FB68DB8F9BB20A
:10560800023B9AB2FB68DA8712E0FB681B680C332E
:10561800FA68926B12781A70FB689B6B5A1CFB68CD
:105628009A63FB68DB8F9BB2013B9AB2FB68DA870F
:1056380000237B62FB681B689B6803F00103012B56
:1056480047D1FB68B3F846309BB2002B41D0FB68CA
:10565800B3F846309BB2012B23D9FB681B6CFA6860
:105668001268D26892B21A80FB681B6C9A1CFB689D
:105678001A64FB68B3F846309BB2023B9AB2FB68E7
:10568800A3F84620FB68B3F846309BB2012B1ED81E
:10569800FB681B68FA681268526842F480525A60C4
:1056A80015E0FB681B6CFA6812680C321278D2B2EB
:1056B8001A70FB681B6C5A1CFB681A64FB68B3F809
:1056C80046309BB2013B9AB2FB68A3F846200123FF
:1056D8007B62FAF74FFF0246FB69D21A3B6B9A428C
:1056E80003D33B6BB3F1FF3F02D13B6B002B03D1DC
:1056F800032387F823301AE0FB68DB8F9BB2002B6B
:105708007FF45CAFFB68B3F846309BB2002B7FF4A4
:1057180055AFFA69396BF86800F046F90346002B73
:1057280005D0012387F82330FB6820221A66FB681E
:10573800012283F85D20FB68002283F85C2097F83B
:10574800233018462837BD4680BD80B584B000AFE9
:10575800F860B9603B601346FB714CE03B68B3F1FD
:10576800FF3F48D0FAF706FF0246BB69D21A3B68EA
:105778009A4202D23B68002B3DD1FB681B68FA684D
:105788001268526822F0E0025A60FB685B68B3F561
:10579800827F11D1FB689B68B3F5004F04D0FB688A
:1057A8009B68B3F5806F07D1FB681B68FA681268BD
:1057B800126822F040021A60FB689B6AB3F5005F2A
:1057C8000FD1FB681B68FA681268126822F400524D
:1057D8001A60FB681B68FA681268126842F4005283
:1057E8001A60FB68012283F85D20FB68002283F8B9
:1057F8005C2003230FE0FB681B689A68BB681A40AB
:10580800BB689A420CBF01230023DBB21A46FB791E
:105818009A42A3D1002318461037BD4680BD80B5F3
:1058280084B000AFF860B9607A603B6057E0BB684D
:10583800B3F5C06F06D17B68002B03D1FB681B68EA
:105848000C331B783B68B3F1FF3F48D0FAF792FE60
:105858000246BB69D21A3B689A4202D23B68002BC7
:105868003DD1FB681B68FA681268526822F0E002B2
:105878005A60FB685B68B3F5827F11D1FB689B684F
:10588800B3F5004F04D0FB689B68B3F5806F07D170
:10589800FB681B68FA681268126822F040021A60F6
:1058A800FB689B6AB3F5005F0FD1FB681B68FA6859
:1058B8001268126822F400521A60FB681B68FA68C2
:1058C8001268126842F400521A60FB68012283F8D9
:1058D8005D20FB68002283F85C20032308E0FB6856
:1058E8001B689A68BB681A407B689A429FD100235C
:1058F80018461037BD4680BD80B586B002AFF86047
:10590800B9607A60FB685B68B3F5827F11D1FB6888
:105918009B68B3F5004F04D0FB689B68B3F5806FB4
:1059280007D1FB681B68FA681268126822F0400207
:105938001A607B680093BB6800228021F868FFF733
:1059480004FF0346002B07D0FB681B6E43F02002C0
:10595800FB681A66032323E0FB685B68B3F5827F64
:105968001DD1FB689B68B3F5004F04D0FB689B68AA
:10597800B3F5806F13D17B680093BB6800224FF4A6
:10598800C061F868FFF74BFF0346002B07D0FB68A0
:105998001B6E43F02002FB681A66032300E0002315
:1059A80018461037BD4680BD80B586B002AFF86096
:1059B800B9607A607B680093BB6800224FF4C051DD
:1059C800F868FFF72CFF0346002B07D0FB681B6E17
:1059D80043F02002FB681A66032327E07B680093E4
:1059E800BB6800228021F868FFF7AFFE0346002B52
:1059F80007D0FB681B6E43F02002FB681A6603237E
:105A080014E07B680093BB6800224FF4C061F8681B
:105A1800FFF705FF0346002B07D0FB681B6E43F01A
:105A28002002FB681A66032300E00023184610379B
:105A3800BD4680BD80B582B000AF78607B68002B22
:105A480001D1012343E07B6893F87130DBB2002B6E
:105A580006D17B68002283F87020786804F02CF85F
:105A68007B68242283F871207B681B687A68126837
:105A7800126822F001021A60786800F02DF80346D7
:105A8800012B01D1012322E07B685B6A002B02D045
:105A9800786800F05FFB7B681B687A681268526858
:105AA80022F490425A607B681B687A681268926890
:105AB80022F02A029A607B681B687A68126812686A
:105AC80042F001021A60786800F0E6FB03461846C7
