:020000040800F2
:1000000000800120D1670008C1660008CF660008A3
:10001000D5660008DB660008E16600080000000005
:10002000000000000000000000000000E76600087B
:10003000F56600080000000003670008116700086B
:10004000216800082168000821680008216800086C
:1000500021680008216800081D6700082B67000858
:100060003967000847670008216800082168000810
:10007000216800082168000821680008216800083C
:10008000216800082168000821680008216800082C
:1000900021680008216800082168000855670008E9
:1000A000216800082168000821680008216800080C
:1000B00021680008216800082168000821680008FC
:1000C00021680008216800082168000821680008EC
:1000D00021680008216800082168000821680008DC
:1000E00021680008216800082168000821680008CC
:1000F00021680008216800082168000821680008BC
:1001000021680008216800082168000821680008AB
:10011000216800082168000821680008216800089B
:10012000216800082168000821680008216800088B
:10013000216800082168000821680008216800087B
:10014000216800082168000821680008216800086B
:10015000216800082168000821680008216800085B
:10016000216800082168000821680008216800084B
:1001700021680008216800082168000800000000CC
:08018000216800082168000855
:1001880010B5054C237833B9044B13B10448AFF3C9
:1001980000800123237010BD1C0000200000000017
:1001A8004069000808B5034B1BB103490348AFF386
:1001B800008008BD00000000200000204069000801
:1001C80080B582B000AF0023FB710C4A0B4B1B6853
:1001D80043F480731360032000F040F9002000F01E
:1001E80017F80346002B02D00123FB7101E000F051
:1001F80007F8FB7918460837BD4680BD0020024045
:1002080080B400AF00BFBD465DF8047B70470000B6
:1002180080B584B000AF78600023FB730C4B1B687B
:100228000C4AA2FB03239B09184600F04CF903462D
:10023800002B02D00123FB7305E0002279684FF000
:10024800FF3000F016F9FB7B18461037BD4680BD1D
:1002580018000020D34D621080B400AF044B1B6817
:100268000133034A136000BFBD465DF8047B704745
:100278008800002080B400AF034B1B681846BD46B9
:100288005DF8047B704700BF8800002080B584B00B
:1002980000AF7860FFF7EEFFB8607B68FB60FB6833
:1002A800B3F1FF3F02D0FB680133FB6000BFFFF7EB
:1002B800E1FF0246BB68D21AFB689A42F7D300BF37
:1002C8001037BD4680BD000080B485B000AF7860AF
:1002D8007B6803F00703FB600C4BDB68BB60BA6804
:1002E8004FF6FF031340BB60FB681A02BB68134359
:1002F80043F0BF6343F40033BB60044ABB68D36078
:1003080000BF1437BD465DF8047B704700ED00E080
:1003180080B400AF044BDB681B0A03F007031846E0
:10032800BD465DF8047B704700ED00E080B483B003
:1003380000AF0346FB71094997F907305B09FA7961
:1003480002F01F02012000FA02F241F8232000BF48
:100358000C37BD465DF8047B704700BF00E100E044
:1003680080B483B000AF03463960FB7197F907305A
:10037800002B0BDA0D49FB7903F00F03043B3A68B5
:10038800D2B21201D2B20B441A7609E0084997F9A1
:1003980007303A68D2B21201D2B20B4483F8002374
:1003A80000BF0C37BD465DF8047B704700ED00E0E8
:1003B80000E100E080B489B000AFF860B9607A600D
:1003C800FB6803F00703FB61FB69C3F10703042B18
:1003D80028BF0423BB61FB690433062B02D9FB69E0
:1003E800033B00E000237B610122BB6902FA03F3AF
:1003F8005A1EBB681A407B699A4001217B6901FA41
:1004080003F3591E7B680B40134318462437BD4637
:100418005DF8047B7047000080B582B000AF78605B
:100428007B68013BB3F1807F01D301230FE00A4AC7
:100438007B68013B53600F214FF0FF30FFF790FFBF
:10044800054B00229A60044B07221A6000231846C5
:100458000837BD4680BD00BF10E000E080B582B01F
:1004680000AF78607868FFF72FFF00BF0837BD46F8
:1004780080BD80B586B000AF0346B9607A60FB7373
:1004880000237B61FFF744FF78617A68B96878696F
:10049800FFF790FF024697F90F3011461846FFF70D
:1004A8005FFF00BF1837BD4680BD80B582B000AF82
:1004B8000346FB7197F907301846FFF737FF00BF6F
:1004C8000837BD4680BD80B582B000AF78607868D7
:1004D800FFF7A2FF034618460837BD4680BD000057
:1004E80080B485B000AF78607B68002B01D1012310
:1004F80098E07B681B681A464D4B9A420FD87B6878
:100508001B681A464B4B13444B4AA2FB03231B0997
:100518009A007B685A647B68484A1A640EE07B68D4
:100528001B681A46464B1344434AA2FB03231B0984
:100538009A007B685A647B68424A1A647B68022284
:1005480083F825207B681B681B68FB60FB6823F425
:10055800FF4323F07003FB607B689A687B68DB6865
:100568001A437B681B691A437B685B691A437B687B
:100578009B691A437B68DB691A437B681B6A1343D0
:10058800FA681343FB607B681B68FA681A607B682B
:100598009B68B3F5804F39D07B681B6C274A934220
:1005A8001AD12949284B1A687B685B6C03F01C0335
:1005B8000F2000FA03F3DB4313400B602248224B61
:1005C8001A687B6859687B685B6C03F01C0301FA46
:1005D80003F31343036019E01C491C4B1A687B683A
:1005E8005B6C03F01C030F2000FA03F3DB4313409A
:1005F8000B601648154B1A687B6859687B685B6CFA
:1006080003F01C0301FA03F3134303607B68002221
:10061800DA637B68012283F825207B68002283F84F
:100628002420002318461437BD465DF8047B704724
:1006380007040240F8FFFDBFCDCCCCCC000002403F
:10064800F8FBFDBF00040240A8000240A8040240D5
:1006580080B483B000AF78607B68002B01D10123A0
:1006680072E07B681B687A681268126822F00102DF
:100678001A607B681B681A46364B9A420FD87B680B
:100688001B681A46344B1344344AA2FB03231B0944
:100698009A007B685A647B68314A1A640EE07B686A
:1006A8001B681A462F4B13442C4AA2FB03231B0931
:1006B8009A007B685A647B682B4A1A647B681B68BB
:1006C80000221A607B681B6C7A68526C02F01C026C
:1006D800012101FA02F25A607B681B6C204A93429E
:1006E8000DD12249214B1A687B685B6C03F01C030F
:1006F8000F2000FA03F3DB4313400B600CE01C49A6
:100708001B4B1A687B685B6C03F01C030F2000FA14
:1007180003F3DB4313400B607B680022DA627B68DB
:1007280000221A637B6800225A637B6800229A635E
:100738007B680022DA637B68002283F825207B68C7
:10074800002283F82420002318460C37BD465DF8A4
:10075800047B704707040240F8FFFDBFCDCCCCCC2A
:1007680000000240F8FBFDBF00040240A800024060
:10077800A804024080B485B000AF78600023FB7302
:100788007B68002B01D1012322E07B681B687A6813
:100798001268126822F00E021A607B681B687A6879
:1007A8001268126822F001021A607B681B6C7A6872
:1007B800526C02F01C02012101FA02F25A607B68B5
:1007C800012283F825207B68002283F82420FB7B04
:1007D80018461437BD465DF8047B704780B487B06F
:1007E80000AF7860396000237B617FE13B681A685D
:1007F80001217B6901FA03F31340FB60FB68002BBE
:1008080000F071813B685B68022B03D03B685B6832
:10081800122B23D17B69DA087B68083253F822301F
:100828003B617B6903F007039B000F2202FA03F385
:10083800DB433A6913403B613B681A697B6903F003
:1008480007039B0002FA03F33A6913433B617B6990
:10085800DA087B680832396943F822107B681B681C
:100868003B617B695B00032202FA03F3DB433A69CD
:1008780013403B613B685B6803F003027B695B00E4
:1008880002FA03F33A6913433B617B683A691A60D9
:100898003B685B68012B0BD03B685B68022B07D079
:1008A8003B685B68112B03D03B685B68122B30D127
:1008B8007B689B683B617B695B00032202FA03F358
:1008C800DB433A6913403B613B68DA687B695B004C
:1008D80002FA03F33A6913433B617B683A699A6009
:1008E8007B685B683B6101227B6902FA03F3DB43A7
:1008F8003A6913403B613B685B681B0903F00102DE
:100908007B6902FA03F33A6913433B617B683A69EE
:100918005A603B685B6803F00303032B18D17B68BC
:10092800DB6A3B6101227B6902FA03F3DB433A6924
:1009380013403B613B685B68DB0803F001027B699D
:1009480002FA03F33A6913433B617B683A69DA6256
:100958007B68DB683B617B695B00032202FA03F377
:10096800DB433A6913403B613B689A687B695B00EB
:1009780002FA03F33A6913433B617B683A69DA6028
:100988003B685B6803F08053002B00F0AC805E4A44
:100998005D4B1B6E43F0010313665B4B1B6E03F04C
:1009A8000103BB60BB68594A7B699B08023352F854
:1009B80023303B617B6903F003039B000F2202FA9B
:1009C80003F3DB433A6913403B617B68B3F1904F13
:1009D80025D07B684E4A93421FD07B684D4A93428C
:1009E80019D07B684C4A934213D07B684B4A934298
:1009F8000DD07B684A4A934207D07B68494A9342A4
:100A080001D106230CE007230AE0052308E00423AC
:100A180006E0032304E0022302E0012300E00023B0
:100A28007A6902F00302920093403A6913433B61EA
:100A380036497B699B0802333A6941F823203A4BCF
:100A48001B683B61FB68DB433A6913403B613B68C9
:100A58005B6803F48033002B03D03A69FB681343C7
:100A68003B61314A3B6913602F4B5B683B61FB6814
:100A7800DB433A6913403B613B685B6803F400332E
:100A8800002B03D03A69FB6813433B61264A3B6954
:100A98005360254B9B683B61FB68DB433A69134015
:100AA8003B613B685B6803F48013002B03D03A6911
:100AB800FB6813433B611C4A3B6993601A4BDB6834
:100AC8003B61FB68DB433A6913403B613B685B6809
:100AD80003F40013002B03D03A69FB6813433B610E
:100AE800114A3B69D3607B6901337B613B681A68B3
:100AF8007B6922FA03F3002B7FF478AE00BF1C3722
:100B0800BD465DF8047B70470010024000000140BC
:100B18000004004800080048000C00480010004885
:100B280000140048001800480004014080B483B055
:100B380000AF78600B467B8013467B707B78002B78
:100B480003D07A887B689A6102E07A887B689A6227
:100B580000BF0C37BD465DF8047B704780B582B096
:100B680000AF0346FB80084B5A69FB881340002BF3
:100B780006D0054AFB885361FB88184603F024FD1C
:100B880000BF0837BD4680BD0004014080B582B073
:100B980000AF78607B68002B01D1012380E07B687F
:100BA80093F84130DBB2002B06D17B68002283F832
:100BB8004020786800F078F87B68242283F8412088
:100BC8007B681B687A681268126822F001021A6052
:100BD8007B681B687A68526822F070621A617B68C9
:100BE8001B687A681268926822F400429A607B68EF
:100BF800DB68012B07D17B681B687A68926842F42E
:100C080000429A6006E07B681B687A68926842F442
:100C180004429A607B68DB68022B04D17B681B68FE
:100C28004FF400625A607B681A687B681B685B68CF
:100C380043F0007343F4004353607B681B687A6891
:100C48001268D26822F40042DA607B681B687A680E
:100C580011697A68526911437A68926912020A43E3
:100C6800DA607B681B687A68D1697A68126A0A4315
:100C78001A607B681B687A681268126842F0010281
:100C88001A607B6800225A647B68202283F841201E
:100C98007B6800221A637B68002283F842200023C5
:100CA80018460837BD4680BD80B483B000AF786071
:100CB80000BF0C37BD465DF8047B704780B483B035
:100CC80000AF786039607B6893F84130DBB2202B45
:100CD80038D17B6893F84030012B01D1022332E0F0
:100CE8007B68012283F840207B68242283F8412016
:100CF8007B681B687A681268126822F001021A6021
:100D08007B681B687A681268126822F480521A603D
:100D18007B681B687A68126811683A680A431A6027
:100D28007B681B687A681268126842F001021A60D0
:100D38007B68202283F841207B68002283F84020CA
:100D4800002300E0022318460C37BD465DF8047BFB
:100D5800704780B485B000AF786039607B6893F8DD
:100D68004130DBB2202B39D17B6893F84030012B1E
:100D780001D1022333E07B68012283F840207B689D
:100D8800242283F841207B681B687A6812681268FD
:100D980022F001021A607B681B681B68FB60FB6815
:100DA80023F47063FB603B681B02FA681343FB6023
:100DB8007B681B68FA681A607B681B687A68126827
:100DC800126842F001021A607B68202283F84120F1
:100DD8007B68002283F84020002300E002231846A5
:100DE8001437BD465DF8047B7047000080B584B0B9
:100DF80000AF78600023BB600023FB607B68002B9A
:100E080001D10123A8E07B6893F83530DBB2002BD1
:100E180006D17B68002283F83420786800F0A2F8B5
:100E28007B68022283F835207B681B687A68126821
:100E3800126822F001021A600023FB600AE07B6856
:100E48001A68FB6804339B00134400225A60FB684D
:100E58000133FB60FB680F2BF1D97B681B687A684C
:100E68001268926842F004029A607B681A687B688C
:100E78001B6859683A4B0B407968486879688968F3
:100E880008437968896A08437968C96A08437968B0
:100E9800C96908437968096A084379688969084310
:100EA8007968496A01430B435360786800F058F940
:100EB8007B681B687A681268126822F0FE017A68FB
:100EC800D0687A68126910437A68526910437A6860
:100ED800126B02430A431A607B681B687A681268BF
:100EE800126842F001021A60FFF7C4F9B8600CE01A
:100EF800FFF7C0F90246BB68D31AB3F57A7F04D965
:100F08007B6808229A63032326E07B681B689B683A
:100F180003F00103012BEBD1FFF7ACF9B8600CE04B
:100F2800FFF7A8F90246BB68D31AB3F57A7F04D94C
:100F38007B6810229A6303230EE07B681B689B681A
:100F480003F01003102BEBD17B6800229A637B68B7
:100F5800012283F83520002318461037BD4680BD8E
:100F68000E0000FC80B483B000AF786000BF0C377F
:100F7800BD465DF8047B704780B586B000AFF86069
:100F8800B9607A603B6000237B61FB6893F8353079
:100F9800DBB2012B05D0FB6893F83530DBB2022BAE
:100FA80044D1FB6893F83530DBB2012B2AD1FB68BA
:100FB80093F83430012B01D1022338E0FB68012279
:100FC80083F83420FB68022283F83520FFF752F9B2
:100FD800786110E0FFF74EF902467B69D31AB3F542
:100FE8007A7F08D9FB6802229A63FB68002283F89B
:100FF800342003231BE0FB681B689B6803F0040391
:10100800042BE7D0FB681968FB681A68BB680433CF
:101018009B0013445A687B681A403B681A43BB68B4
:1010280004339B000B445A60002300E00123184658
:101038001837BD4680BD80B584B000AF7860002306
:10104800BB600023FB607B6893F83530DBB2012B73
:1010580005D07B6893F83530DBB2022B40D17B6832
:1010680093F83430012B01D102233AE07B68012246
:1010780083F834207B68022283F83520FFF7FAF8DA
:10108800B86010E0FFF7F6F80246BB68D31AB3F56C
:101098007A7F08D97B6802229A637B68002283F8EA
:1010A800342003231DE07B681B689B6803F004035E
:1010B800042BE7D00023FB600AE07B681A68FB6812
:1010C80004339B00134400225A60FB680133FB6021
:1010D800FB680F2BF1D9786800F007F8002300E0CF
:1010E800012318461037BD4680BD80B584B000AFD7
:1010F80078600023FB607B681B680822DA607B68E5
:101108001B687A681268926842F004029A60FFF7D6
:10111800B1F8F86010E0FFF7ADF80246FB68D31AA3
:10112800B3F57A7F08D97B6804229A637B6800222A
:1011380083F8342003230FE07B681B689B6803F067
:101148000803082BE7D17B68012283F835207B68E8
:10115800002283F83420002318461037BD4680BD8E
:1011680080B584B000AF78600023FB60FFF782F899
:10117800F8600CE0FFF77EF80246FB68D31AB3F577
:101188007A7F04D97B6801229A63032307E07B688E
:101198001B689B6803F02003202BEBD10023184623
:1011A8001037BD4680BD000080B400AF044B1B68FB
:1011B80003F4C0631846BD465DF8047B704700BF62
:1011C8000070004080B485B000AF78607B68B3F5EC
:1011D800007F30D1234B1B6803F4C063B3F5007F55
:1011E80038D0204A1F4B1B6823F4C06343F40073B4
:1011F80013601D4B1B68322202FB03F31B4AA2FB40
:1012080003239B0C0133FB6002E0FB68013BFB609E
:10121800144B5B6903F48063B3F5806F02D1FB68FC
:10122800002BF2D10F4B5B6903F48063B3F5806F39
:1012380010D103230FE00B4B1B6803F4C063B3F515
:10124800806F07D0074A074B1B6823F4C06343F439
:1012580080631360002318461437BD465DF8047B8D
:10126800704700BF007000401800002083DE1B4359
:1012780080B586B002AF7860FEF7FCFFF8607B6847
:10128800002B01D101236FE07B6893F83830DBB283
:10129800012B01D1022367E07B68012283F8382003
:1012A8007B6893F83930DBB2002B0BD17B680022C6
:1012B80083F83820786800F08DF841F28831786832
:1012C80000F017FB7B681B687A681268126822F4C2
:1012D80070617A689268013A12020A431A607B6860
:1012E8001B6C0093FB6800222021786800F00FFB3C
:1012F8000346FB72FB7A002B31D17B681A687B6846
:101308001B681B6823F07F4323F010037968496842
:1013180008067968C96801430B4313607B681A683B
:101328007B681B685968124B0B4079680969080487
:101338007968496908437968896901430B435360AF
:101348007B681B687A681268126842F001021A60AA
:101358007B680022DA637B68012283F839207B6886
:10136800002283F83820FB7A18461037BD4680BD26
:10137800FEF8E0FF80B582B000AF78607B68002B94
:1013880001D1012322E07B6893F83830DBB2012BCE
:1013980001D102231AE07B68012283F838207B6898
:1013A8001B687A681268126822F001021A6078686D
:1013B80000F01AF87B680022DA637B68002283F861
:1013C80039207B68002283F8382000231846083724
:1013D800BD4680BD80B483B000AF786000BF0C37D5
:1013E800BD465DF8047B704780B483B000AF786079
:1013F80000BF0C37BD465DF8047B704780B588B0E8
:1014080002AFF860B9607A60FEF734FF3861FB68B4
:1014180093F83830DBB2012B01D1022348E0FB6896
:10142800012283F83820FB6893F83930DBB2012BAE
:1014380037D1FB680022DA63FB68022283F839207F
:101448007B6800933B6900222021F86800F05FFA6E
:101458000346FB75FB7D002B25D10022B968F8688F
:1014680000F08CFABB685B6A002B15D17B6800938F
:101478003B6901220221F86800F049FA0346FB752E
:10148800FB7D002B0FD1FB681B680222DA60FB682A
:10149800012283F8392006E0FB68012283F839200D
:1014A80001E00223FB75FB68002283F83820FB7DEE
:1014B80018461837BD4680BD80B58AB002AFF860BF
:1014C800B9607A600023FB77FEF7D4FEB861FB6849
:1014D8001B6820337B61FB6893F83830DBB2012B43
:1014E80001D102237BE0FB68012283F83820FB68E6
:1014F80093F83930DBB2012B6AD1FB680022DA633A
:10150800BB68002B5BD0FB68122283F83920FB688C
:101518001B681B695A1CFB685A62FB681B681B69BD
:101528005A1CFB681A62FB68BA68DA61FB681B68B8
:10153800FA681268526922F040625A611BE07B68BF
:101548000093BB6901220421F86800F0E0F9034622
:10155800FB77FB7F002B13D1FB68DB691A787B696B
:101568001A70FB68DB695A1CFB68DA61FB685B6A06
:101578005A1EFB685A62FB685B6A002BDFD100E0E9
:1015880000BFFB7F002B15D17B680093BB6901224C
:101598000221F86800F0BBF90346FB77FB7F002BBC
:1015A80008D1FB681B680222DA60F86800F034F999
:1015B8000346FB77FB68012283F839200AE0FB68C1
:1015C800DB6B43F00802FB68DA630123FB7701E079
:1015D8000223FB77FB68002283F83820FB7F18463C
:1015E8002037BD4680BD80B58AB002AFF860B960CB
:1015F8007A600023FB77FEF73DFEB861FB681B6845
:101608009B697B61FB681B6820333B61FB6893F82F
:101618003830DBB2012B01D1022382E0FB680122C2
:1016280083F83820FB6893F83930DBB2012B71D18D
:10163800FB680022DA63BB68002B62D0FB682222B9
:1016480083F83920FB681B681B695A1CFB681A63FE
:10165800FB681B681B695A1CFB68DA62FB68BA687E
:101668009A62FB681B68FA681268526922F0406245
:1016780042F080625A61FB681B687A699A611CE0D3
:101688007B680093BB6901220621F86800F03FF9E6
:101698000346FB77FB7F002B14D1FB689B6A3A69F2
:1016A8001278D2B21A70FB689B6A5A1CFB689A625D
:1016B800FB681B6B5A1EFB681A63FB681B6B002BCD
:1016C800DED100E000BFFB7F002B15D17B680093C3
:1016D800BB6901220221F86800F019F90346FB777B
:1016E800FB7F002B08D1FB681B680222DA60F868D0
:1016F80000F092F80346FB77FB68012283F8392053
:101708000AE0FB68DB6B43F00802FB68DA6301233D
:10171800FB7701E00223FB77FB68002283F838207F
:10172800FB7F18462037BD4680BD80B588B002AF24
:10173800F860B9607A603B60FEF79CFD3861FB6831
:1017480093F83830DBB2012B01D1022360E0FB684B
:10175800012283F83820FB6893F83930DBB2012B7B
:101768004FD1FB680022DA63FB68422283F83920F4
:101778003B6800933B6900222021F86800F0C7F815
:101788000346FB75FB7D002B3DD1FB681B687A681F
:1017980012689A62FB681B687A6852685A62FB682A
:1017A8001B687A689268DA62FB681B68FA681268D4
:1017B800126822F440017A6812690A4342F48002EE
:1017C8001A607B68DA68BB689A624FF00062B96891
:1017D800F86800F0D3F83B6800933B6901220821C0
:1017E800F86800F094F80346FB75FB7D002B0AD1DE
:1017F800FB681B680822DA60FB68012283F839203D
:1018080001E00223FB75FB68002283F83820FB7D8A
:1018180018461837BD4680BD80B586B002AF7860DF
:101828000023FB73FEF726FDB8607B6893F8393018
:10183800DBB203F00203002B56D07B68002283F84A
:1018480038207B681B681B6803F00403002B17D043
:101858007B681B687A681268126822F004021A60B2
:101868007B685B6B1846FEF785FF0346FB73FB7BC3
:10187800002B05D07B68DB6B43F004027B68DA63DE
:101888007B681B687A681268126842F002021A6064
:101898007B681B6C0093BB6801220221786800F00A
:1018A80036F80346FB73FB7B002B0ED17B681B6865
:1018B8000222DA607B681B6C0093BB68002220213F
:1018C800786800F024F80346FB73FB7B002B0BD1F0
:1018D8007B681B687A681268526922F040625A6114
:1018E8007B68012283F83920FB7B18461037BD46F8
:1018F80080BD80B483B000AF786039607B683A6897
:101908001A6400BF0C37BD465DF8047B704780B58C
:1019180084B000AFF860B9603B601346FB711AE011
:10192800BB69B3F1FF3F16D0FEF7A4FC02463B6843
:10193800D21ABB699A4202D8BB69002B0BD1FB684B
:10194800042283F83920FB68DB6B43F00102FB6853
:10195800DA6301230EE0FB681B689A68BB681340D2
:10196800002B14BF01230023DBB21A46FB799A42ED
:10197800D6D1002318461037BD4680BD80B485B047
:1019880000AFF860B9607A60BB685B6A002B09D069
:101998007B68B3F1406F05D0FB681B68BA68926A30
:1019A800013A1A61BB689B69002B00F0B580BB68DF
:1019B8001B6A002B5DD0FB681B68BA689268DA6105
:1019C800BB68DB69002B30D0FB681B68BA68D16A3A
:1019D800BA68126B1143BA68526B1143BA68526AFB
:1019E8001143BA68526992041143BA6812691143E3
:1019F800BA68126A1143BA68D2681143BA68D269E0
:101A08001143BA6892691143BA68126811437A6837
:101A18000A435A617B68B3F1406F00F02781FB6885
:101A28001B68BA6852689A6120E1FB681B68BA684B
:101A3800D16ABA68126B1143BA68526B1143BA681B
:101A4800526A1143BA68526992041143BA6812691A
:101A58001143BA68126A1143BA68D2691143BA6865
:101A680092691143BA68126811437A680A435A6145
:101A7800FCE0BB68DB69002B2DD0FB681B68BA68EB
:101A8800D16ABA68126B1143BA68526B1143BA68CB
:101A9800526A1143BA68526992041143BA68126AC9
:101AA8001143BA68D2681143BA68D2691143BA6857
:101AB80092691143BA68126811437A680A435A61F5
:101AC8007B68B3F1406F00F0D180FB681B68BA688F
:101AD80052689A61CAE0FB681B68BA68D16ABA683A
:101AE800126B1143BA68526B1143BA68526A1143B8
:101AF800BA68526992041143BA68126A1143BA6803
:101B0800D2691143BA6892691143BA6812681143DD
:101B18007A680A435A61A9E0BB681B6A002B56D051
:101B2800FB681B68BA689268DA61BB68DB69002BDE
:101B38002CD0FB681B68BA68D16ABA68126B11436B
:101B4800BA68526B1143BA68526A1143BA6852694B
:101B580092041143BA6812691143BA68126A1143B0
:101B6800BA68D2681143BA68D2691143BA689269EF
:101B780011437A680A435A617B68B3F1406F75D0A4
:101B8800FB681B68BA6852689A616FE0FB681B685B
:101B9800BA68D16ABA68126B1143BA68526B1143BA
:101BA800BA68526A1143BA68526992041143BA6812
:101BB80012691143BA68126A1143BA68D2691143AB
:101BC800BA68926911437A680A435A614EE0BB6861
:101BD800DB69002B29D0FB681B68BA68D16ABA6830
:101BE800126B1143BA68526B1143BA68526A1143B7
:101BF800BA68526992041143BA68126A1143BA6802
:101C0800D2681143BA68D2691143BA68926911431C
:101C18007A680A435A617B68B3F1406F26D0FB6843
:101C28001B68BA6852689A6120E0BB685B6A002B3F
:101C38001CD0FB681B68BA68D16ABA68126B11437A
:101C4800BA68526B1143BA68526A1143BA6852694A
:101C580092041143BA68126A1143BA68D2691143EF
:101C6800BA68926911437A680A435A6100BF143707
:101C7800BD465DF8047B704780B588B000AF7860DA
:101C88007B68002B01D1012353E3A34B9B6803F02E
:101C98000C03BB61A04BDB6803F003037B617B682B
:101CA8001B6803F01003002B00F0DF80BB69002BDA
:101CB80007D0BB690C2B40F086807B69012B40F074
:101CC8008280954B1B6803F00203002B05D07B68CC
:101CD8009B69002B01D101232BE37B681A6A8E4B89
:101CE8001B6803F00803002B04D08B4B1B6803F020
:101CF800F00305E0884BD3F894301B0903F0F00398
:101D08009A4223D97B681B6A184600F0CBFC03462D
:101D1800002B01D001230CE37F4A7F4B1B6843F063
:101D2800080313607C497C4B1B6823F0F0027B6836
:101D38001B6A13430B607849774B5B6823F47F4237
:101D48007B68DB691B0213434B6022E0724A724BCB
:101D58001B6843F0080313606F496F4B1B6823F03F
:101D6800F0027B681B6A13430B606B496A4B5B6824
:101D780023F47F427B68DB691B0213434B607B685B
:101D88001B6A184600F08EFC0346002B01D0012385
:101D9800CFE200F0B3FB01465F4B9B681B0903F0E1
:101DA8000F035E4AD35C03F01F0321FA03F35C4A76
:101DB80013600020FEF72CFA0346FB73FB7B002B15
:101DC80052D0FB7BB5E27B689B69002B32D0524A2C
:101DD800514B1B6843F001031360FEF74BFA38615F
:101DE80008E0FEF747FA02463B69D31A022B01D9ED
:101DF80003239EE2484B1B6803F00203002BF0D03C
:101E0800454A454B1B6843F0080313604249424B5F
:101E18001B6823F0F0027B681B6A13430B603E4982
:101E28003D4B5B6823F47F427B68DB691B021343ED
:101E38004B601AE0384A384B1B6823F001031360E3
:101E4800FEF718FA386108E0FEF714FA02463B6913
:101E5800D31A022B01D903236BE22F4B1B6803F023
:101E68000203002BF0D100E000BF7B681B6803F081
:101E78000103002B72D0BB69082B05D0BB690C2B62
:101E88000ED17B69032B0BD1234B1B6803F4003362
:101E9800002B62D07B685B68002B5ED1012348E28F
:101EA8007B685B68B3F5803F06D11B4A1A4B1B68F9
:101EB80043F4803313601DE07B685B68B3F5A02FA3
:101EC8000CD1154A144B1B6843F480231360124A43
:101ED800114B1B6843F4803313600BE00E4A0E4B22
:101EE8001B6823F4803313600B4A0B4B1B6823F4E5
:101EF800802313607B685B68002B1AD0FEF7BAF961
:101F080038610FE0FEF7B6F902463B69D31A642B35
:101F180008D903230DE200BF001002403C6A000804
:101F280018000020AE4B1B6803F40033002BE9D0E7
:101F380014E0FEF79FF9386108E0FEF79BF90246C6
:101F48003B69D31A642B01D90323F2E1A44B1B6824
:101F580003F40033002BF0D100E000BF7B681B685E
:101F680003F00203002B60D0BB69042B05D0BB69CA
:101F78000C2B19D17B69022B16D1994B1B6803F4E2
:101F88008063002B05D07B68DB68002B01D101231F
:101F9800CFE19349924B5B6823F0F8527B681B6949
:101FA8001B0613434B6040E07B68DB68002B23D0A3
:101FB8008B4A8B4B1B6843F480731360FEF75AF906
:101FC800386108E0FEF756F902463B69D31A022B3E
:101FD80001D90323ADE1824B1B6803F48063002B16
:101FE800F0D07F497E4B5B6823F0F8527B681B6911
:101FF8001B0613434B6018E0794A794B1B6823F49E
:1020080080731360FEF736F9386108E0FEF732F99D
:1020180002463B69D31A022B01D9032389E1704B8D
:102028001B6803F48063002BF0D17B681B6803F006
:102038000803002B3CD07B685B69002B1CD0684AE6
:10204800674BD3F8943043F00103C2F89430FEF79D
:1020580011F9386108E0FEF70DF902463B69D31A19
:10206800022B01D9032364E15D4BD3F8943003F0CC
:102078000203002BEFD01BE0594A594BD3F8943098
:1020880023F00103C2F89430FEF7F4F8386108E051
:10209800FEF7F0F802463B69D31A022B01D9032355
:1020A80047E14F4BD3F8943003F00203002BEFD1F4
:1020B8007B681B6803F00403002B00F0A580002355
:1020C800FB77474B9B6D03F08053002B0DD1444A9F
:1020D800434B9B6D43F080539365414B9B6D03F0DD
:1020E8008053BB60BB680123FB773E4B1B6803F43E
:1020F8008073002B18D13B4A3A4B1B6843F480731A
:102108001360FEF7B7F8386108E0FEF7B3F8024647
:102118003B69D31A022B01D903230AE1314B1B680F
:1021280003F48073002BF0D07B689B68012B08D1E7
:102138002B4A2B4BD3F8903043F00103C2F8903070
:1021480024E07B689B68052B10D1254A244BD3F8E3
:10215800903043F00403C2F89030214A204BD3F862
:10216800903043F00103C2F890300FE01C4A1C4B3A
:10217800D3F8903023F00103C2F89030184A184B76
:10218800D3F8903023F00403C2F890307B689B6842
:10219800002B16D0FEF76EF838610AE0FEF76AF8F1
:1021A80002463B69D31A41F28832934201D903238C
:1021B800BFE00B4BD3F8903003F00203002BEDD0B7
:1021C80019E0FEF757F838610EE0FEF753F80246BB
:1021D8003B69D31A41F28832934205D90323A8E018
:1021E8000010024000700040544BD3F8903003F0C8
:1021F8000203002BE9D1FB7F012B05D14F4A4F4B3E
:102208009B6D23F0805393657B689B6A002B00F0DD
:102218008F80BB690C2B00F089807B689B6A022B3E
:1022280056D1464A454B1B6823F080731360FEF76E
:1022380021F8386108E0FEF71DF802463B69D31A19
:10224800022B01D9032374E03C4B1B6803F0007395
:10225800002BF0D139497B681B6B013B1A017B6865
:102268005B6B1B021A437B689B6B1B095B041A435D
:102278007B68DB6A1A437B68DB6B5B08013B5B05A9
:102288001A437B681B6C5B08013B5B061343CB60FE
:102298002A4A2A4B1B6843F080731360274A274B4E
:1022A800DB6843F08073D360FDF7E4FF386108E032
:1022B800FDF7E0FF02463B69D31A022B01D903233D
:1022C80037E01E4B1B6803F00073002BF0D02FE0A3
:1022D8001A4A1A4B1B6823F080731360174B1B684C
:1022E80003F02053002B05D1144A144BDB6823F06C
:1022F8000303D360114A114BDB6823F0887323F47E
:102308008033D360FDF7B6FF386108E0FDF7B2FF10
:1023180002463B69D31A022B01D9032309E0074B74
:102328001B6803F00073002BF0D101E0012300E0EB
:10233800002318462037BD4680BD00BF001002406C
:1023480080B584B000AF786039607B68002B01D11C
:102358000123C6E0654B1B6803F007023B689A42FD
:1023680010D26249614B1B6823F007023B68134394
:102378000B605E4B1B6803F007023B689A4201D072
:102388000123AEE07B681B6803F00103002B4CD0EF
:102398007B685B68032B07D1554B1B6803F0007300
:1023A800002B21D101239CE07B685B68022B07D1BD
:1023B8004F4B1B6803F40033002B15D1012390E029
:1023C8007B685B68002B07D1494B1B6803F002034D
:1023D800002B09D1012384E0454B1B6803F480637B
:1023E800002B01D101237CE04149414B9B6823F03C
:1023F80003027B685B6813438B60FDF73BFFF86063
:102408000AE0FDF737FF0246FB68D31A41F288322B
:10241800934201D9032364E0354B9B6803F00C0217
:102428007B685B689B009A42EBD17B681B6803F072
:102438000203002B08D02E492D4B9B6823F0F00295
:102448007B689B6813438B60284B1B6803F007026B
:102458003B689A4210D92549244B1B6823F0070290
:102468003B6813430B60214B1B6803F007023B6872
:102478009A4201D0012334E07B681B6803F004030F
:10248800002B08D01A491A4B9B6823F4E0627B683A
:10249800DB6813438B607B681B6803F00803002B21
:1024A80009D01349124B9B6823F460527B681B695F
:1024B800DB0013438B6000F021F801460C4B9B684E
:1024C8001B0903F00F030B4AD35C03F01F0321FA27
:1024D80003F3094A13600020FDF79AFE0346FB72D6
:1024E800FB7A18461037BD4680BD00BF0020024069
:1024F800001002403C6A00081800002080B489B02F
:1025080000AF0023FB610023BB61464B9B6803F0CF
:102518000C033B61434BDB6803F00303FB603B693F
:10252800002B05D03B690C2B21D1FB68012B1ED158
:102538003C4B1B6803F00803002B07D1394BD3F839
:1025480094301B0A03F00F03FB6105E0354B1B6851
:102558001B0903F00F03FB61334AFB6952F8233070
:10256800FB613B69002B0DD1FB69BB610AE03B694C
:10257800042B02D12D4BBB6104E03B69082B01D130
:102588002B4BBB613B690C2B45D1264BDB6803F019
:102598000303BB60234BDB681B0903F0070301330C
:1025A8007B60BB68022B02D0032B0DD019E01F4AB9
:1025B8007B68B2FBF3F31B4AD268120A02F07F026F
:1025C80002FB03F37B6119E0194A7B68B2FBF3F362
:1025D800144AD268120A02F07F0202FB03F37B61FD
:1025E8000CE0FA697B68B2FBF3F30E4AD268120A70
:1025F80002F07F0202FB03F37B6100BF094BDB683B
:102608005B0E03F0030301335B003B607A693B68B0
:10261800B2FBF3F3BB61BB6918462437BD465DF8CE
:10262800047B704700100240546A00080024F4003C
:1026380000127A0080B400AF034B1B681846BD46F1
:102648005DF8047B704700BF1800002080B500AF1C
:10265800FFF7F0FF0146064B9B681B0A03F00703D0
:10266800044AD35C03F01F0321FA03F3184680BD24
:10267800001002404C6A000880B500AFFFF7DAFF8F
:102688000146064B9B68DB0A03F00703044AD35C48
:1026980003F01F0321FA03F3184680BD001002401F
:1026A8004C6A000880B586B000AF786000233B61B3
:1026B8002A4B9B6D03F08053002B03D0FEF774FD6B
:1026C800786114E0254A254B9B6D43F08053936550
:1026D800224B9B6D03F08053FB60FB68FEF764FDA3
:1026E80078611E4A1D4B9B6D23F0805393657B696F
:1026F800B3F5007F0BD17B68802B19D97B68A02BA1
:1027080002D902233B6113E001233B6110E07B689F
:10271800802B02D903233B610AE07B68802B02D11E
:1027280002233B6104E07B68702B01D101233B61EC
:102738000B490B4B1B6823F007023B6913430B60E3
:10274800074B1B6803F007023B699A4201D001233B
:1027580000E0002318461837BD4680BD001002402F
:102768000020024080B586B000AF78600023FB747B
:102778000023BB747B681B6803F40063002B3FD005
:102788007B685B6EB3F5800F1CD0B3F5800F02D861
:10279800002B0ED01FE0B3F5000F03D0B3F5400FA8
:1027A8001CD018E0854A854BDB6843F48033D3603E
:1027B80015E07B6804330021184600F031FF03461A
:1027C800FB740CE07B6820330021184601F018F8F0
:1027D8000346FB7403E00123FB7400E000BFFB7CAD
:1027E800002B0BD17549754BD3F8883023F4400280
:1027F8007B685B6E1343C1F8883001E0FB7CBB74D7
:102808007B681B6803F48053002B3FD07B689B6E6A
:10281800B3F1807F1CD0B3F1807F02D8002B0ED09B
:102828001FE0B3F1007F03D0B3F1407F1CD018E064
:10283800624A624BDB6843F48033D36015E07B68FF
:1028480004330021184600F0EBFE0346FB740CE04D
:102858007B6820330021184600F0D2FF0346FB7442
:1028680003E00123FB7400E000BFFB7C002B0BD1CD
:102878005249524BD3F8883023F040727B689B6EE4
:102888001343C1F8883001E0FB7CBB747B681B688C
:1028980003F40033002B00F0A08000237B74474B27
:1028A8009B6D03F08053002B01D1012300E000232E
:1028B800002B0DD0414A414B9B6D43F080539365EB
:1028C8003E4B9B6D03F08053BB60BB6801237B7458
:1028D8003B4A3B4B1B6843F480731360FDF7CAFC0B
:1028E800F86009E0FDF7C6FC0246FB68D31A022B24
:1028F80002D90323FB7405E0314B1B6803F4807392
:10290800002BEFD0FB7C002B5CD12C4BD3F8903004
:1029180003F440737B617B69002B1FD07B68D3F87D
:1029280084207B699A4219D0244BD3F8903023F441
:1029380040737B61214A214BD3F8903043F48033B4
:10294800C2F890301D4A1D4BD3F8903023F48033E1
:10295800C2F89030194A7B69C2F890307B6903F05D
:102968000103002B16D0FDF785FCF8600BE0FDF79E
:1029780081FC0246FB68D31A41F28832934202D99D
:102988000323FB7406E00D4BD3F8903003F00203E9
:10299800002BECD0FB7C002B0CD10849074BD3F85B
:1029A800903023F440727B68D3F884301343C1F825
:1029B800903009E0FB7CBB7406E000BF00100240C9
:1029C80000700040FB7CBB747B7C012B05D19E4AC8
:1029D8009D4B9B6D23F0805393657B681B6803F0C8
:1029E8000103002B0AD09849974BD3F8883023F07D
:1029F80003027B689B6B1343C1F888307B681B68B4
:102A080003F00203002B0AD08F498F4BD3F888308C
:102A180023F00C027B68DB6B1343C1F888307B68BA
:102A28001B6803F00403002B0AD08749864BD3F8B0
:102A3800883023F030027B681B6C1343C1F8883060
:102A48007B681B6803F00803002B0AD07E497E4B85
:102A5800D3F8883023F0C0027B685B6C1343C1F85D
:102A680088307B681B6803F01003002B0AD0764976
:102A7800754BD3F8883023F440727B689B6C134302
:102A8800C1F888307B681B6803F02003002B0AD04C
:102A98006D496D4BD3F8883023F440627B68DB6C5A
:102AA8001343C1F888307B681B6803F40073002B5C
:102AB8000AD06549644BD3F8883023F440227B68F8
:102AC800DB6D1343C1F888307B681B6803F48063AF
:102AD800002B0AD05C495C4BD3F8883023F44012B1
:102AE8007B681B6E1343C1F888307B681B6803F052
:102AF8004003002B0AD05449534BD3F8883023F4B1
:102B080040527B681B6D1343C1F888307B681B6893
:102B180003F08003002B0AD04B494B4BD3F8883085
:102B280023F440427B685B6D1343C1F888307B68AF
:102B38001B6803F48073002B0AD04349424BD3F837
:102B4800883023F440327B689B6D1343C1F888308A
:102B58007B681B6803F40053002B28D03A493A4B92
:102B6800D3F8883023F040627B68DB6E1343C1F8EA
:102B780088307B68DB6EB3F1006F06D1324A324B86
:102B8800DB6843F48013D36011E07B68DB6EB3F13C
:102B9800806F0CD17B6804330121184600F040FD9A
:102BA8000346FB74FB7C002B01D0FB7CBB747B6869
:102BB8001B6803F40023002B28D02349224BD3F8A9
:102BC800883023F040627B681B6F1343C1F888305C
:102BD8007B681B6FB3F1006F06D11B4A1A4BDB6889
:102BE80043F48013D36011E07B681B6FB3F1806FEF
:102BF8000CD17B6804330121184600F011FD03460F
:102C0800FB74FB7C002B01D0FB7CBB747B681B68CE
:102C180003F48023002B2BD00B490B4BD3F88830BF
:102C280023F040627B685B6F1343C1F888307B6890
:102C38005B6FB3F1006F09D1034A034BDB6843F4C0
:102C48008013D36014E000BF001002407B685B6F04
:102C5800B3F1806F0CD17B6804330121184600F072
:102C6800DFFC0346FB74FB7C002B01D0FB7CBB74B0
:102C78007B681B6803F48043002B2FD02B492B4B18
:102C8800D3F8883023F040527B689B6F1343C1F818
:102C980088307B689B6FB3F1805F0DD17B6804330C
:102CA8000221184600F0BCFC0346FB74FB7C002B99
:102CB80014D0FB7CBB7411E07B689B6FB3F1005FA1
:102CC8000CD17B6820330221184600F099FD034699
:102CD800FB74FB7C002B01D0FB7CBB747B681B68FE
:102CE80003F40043002B0AD01049104BD3F8883066
:102CF80023F080427B68DB6F1343C1F888307B6820
:102D08001B6803F48033002B0BD00849074BD3F81A
:102D1800883023F000427B68D3F880301343C1F831
:102D28008830BB7C18461837BD4680BD001002406D
:102D380080B588B000AF78600023FB617B68B3F58D
:102D4800003F37D1B84BD3F8903003F440737B6120
:102D58007B69B3F5007F14D0B3F5407F1ED0B3F57F
:102D6800807F01D000F053BCAF4BD3F8903003F014
:102D78000203022B40F046844FF40043FB6100F04D
:102D880041BCA94BD3F8943003F00203022B40F066
:102D98003B844FF4FA43FB6100F036BCA24B1B683E
:102DA80003F40033B3F5003F40F030849F4BFB61E0
:102DB80000F02CBC9C4BDB6803F003033B613B69D0
:102DC800022B23D0032B2ED0012B39D1964B1B6815
:102DD80003F00203022B16D1934B1B6803F0080380
:102DE800002B05D0904B1B681B0903F00F0305E06F
:102DF8008D4BD3F894301B0A03F00F038C4A52F81A
:102E08002330BB611FE00023BB611CE0864B1B68BD
:102E180003F48063B3F5806F02D1864BBB6112E087
:102E28000023BB610FE0804B1B6803F40033B3F54C
:102E3800003F02D1804BBB6105E00023BB6102E08B
:102E48000023BB6100BF7B68B3F5007F00F03783C8
:102E5800B3F5007F25D8102B00F0DF81102B0FD899
:102E6800022B00F02881022B03D8012B00F0EC8004
:102E7800CDE3042B00F06981082B00F09A81C6E3AA
:102E8800402B00F0B382402B03D8202B00F0FD81AB
:102E9800BDE3802B00F0CD82B3F5807F00F0EC829B
:102EA800B5E3B3F5804F00F02D82B3F5804F11D80C
:102EB800B3F5006F21D0B3F5006F04D8B3F5806F78
:102EC80000F03E83A3E3B3F5805F1DD0B3F5005F48
:102ED80021D09CE3B3F5803F00F07782B3F5803FC3
:102EE80004D8B3F5004F00F0718390E3B3F5802F59
:102EF80011D0B3F5002F0ED089E3B9694FF4006003
:102F080000F058FDF86182E3B9694FF4805000F091
:102F180051FDF8617BE3444BD3F8883003F04063FC
:102F28007B617B69B3F1006F23D0B3F1406F03D0AD
:102F3800B3F1806F4AD086E03B4B1B6803F0020375
:102F4800022B7BD1384B1B6803F00803002B05D0FC
:102F5800354B1B681B0903F00F0305E0324BD3F810
:102F680094301B0A03F00F03314A52F82330FB61F7
:102F780064E02D4B1B6803F00073B3F1007F5FD151
:102F8800294BDB6803F48013B3F5801F58D1264B17
:102F9800DB681B0903F007030133BA69B2FBF3F3DB
:102FA800BB61214BDB681B0A03F07F03FB60BB6935
:102FB800FA6802FB03F21C4BDB685B0D03F00303AA
:102FC80001335B00B2FBF3F3FB6139E0164B1B687E
:102FD80003F00063B3F1006F34D1134B1B6903F4A2
:102FE8008013B3F5801F2DD10F4BDB681B0903F04D
:102FF80007030133BA69B2FBF3F3BB610A4B1B69E0
:103008001B0A03F07F03FB60BB69FA6802FB03F24B
:10301800054B1B695B0D03F0030301335B00B2FB37
:10302800F3F3FB610EE000BF0010024090D00300F4
:10303800546A00080024F40000127A0000BFE6E297
:1030480000BFE4E200BFE2E2AC4BD3F8883003F003
:1030580003037B617B69032B27D801A252F823F075
:103068007930000881300008893000089D30000858
:10307800FFF702FBF8611DE0FFF740FAF86119E07D
:103088009E4B1B6803F48063B3F5806F0FD19C4B94
:10309800FB610CE0994BD3F8903003F00203022B4C
:1030A80007D14FF40043FB6103E000BFAFE200BF6C
:1030B800ADE200BFABE2914BD3F8883003F00C03CC
:1030C8007B617B690C2B3AD801A252F823F000BF30
:1030D8000D31000847310008473100084731000822
:1030E800153100084731000847310008473100080A
:1030F8001D310008473100084731000847310008F2
:1031080031310008FFF7A2FAF8611DE0FFF7F6F980
:10311800F86119E0794B1B6803F48063B3F5806F9D
:103128000FD1774BFB610CE0744BD3F8903003F070
:103138000203022B07D14FF40043FB6103E000BFF9
:1031480065E200BF63E200BF61E26C4BD3F88830F0
:1031580003F030037B617B69102B0DD0102B02D854
:10316800002B05D024E0202B0AD0302B12D01FE0F2
:10317800FFF76CFAF8611BE0FFF7C0F9F86117E098
:103188005E4B1B6803F48063B3F5806F0DD15C4B15
:10319800FB610AE0594BD3F8903003F00203022B8D
:1031A80005D14FF40043FB6101E000BF2FE200BFEF
:1031B8002DE2524BD3F8883003F0C0037B617B6962
:1031C800402B0DD0402B02D8002B05D024E0802BBB
:1031D8000AD0C02B12D01FE0FFF738FAF8611BE0C5
:1031E800FFF78CF9F86117E0444B1B6803F4806320
:1031F800B3F5806F0DD1424BFB610AE03F4BD3F82A
:10320800903003F00203022B05D14FF40043FB6119
:1032180001E000BFFBE100BFF9E1384BD3F888308B
:1032280003F440737B617B69B3F5807F10D0B3F5FD
:10323800807F02D8002B07D026E0B3F5007F0BD0A3
:10324800B3F5407F12D01FE0FFF700FAF8611BE0EA
:10325800FFF754F9F86117E0284B1B6803F4806303
:10326800B3F5806F0DD1264BFB610AE0234BD3F8F1
:10327800903003F00203022B05D14FF40043FB61A9
:1032880001E000BFC3E100BFC1E11C4BD3F88830A7
:1032980003F440637B617B69B3F5806F10D0B3F5AD
:1032A800806F02D8002B07D026E0B3F5006F0BD053
:1032B800B3F5406F12D01FE0FFF7C8F9F8611BE0C3
:1032C800FFF71CF9F86117E00C4B1B6803F48063E7
:1032D800B3F5806F0DD10A4BFB610AE0074BD3F8B9
:1032E800903003F00203022B05D14FF40043FB6139
:1032F80001E000BF8BE100BF89E100BF0010024080
:103308000024F400AE4BD3F8883003F040537B61BF
:103318007B69B3F1005F2FD0B3F1405F03D0B3F105
:10332800805F04D050E0FFF7E9F8F8614CE0A44B67
:103338001B6903F08073002B43D0A14BDB681B098A
:1033480003F007030133BA69B2FBF3F3BB619C4B8B
:103358001B691B0A03F07F03FB60BB69FA6802FB69
:1033680003F2974B1B695B0E03F0030301335B0009
:10337800B2FBF3F3FB6124E0914B5B6903F08073CC
:10338800002B20D08E4BDB681B0903F007030133A9
:10339800BA69B2FBF3F3BB61894B5B691B0A03F0A3
:1033A8007F03FB60BB69FA6802FB03F2844B5B692D
:1033B8005B0E03F0030301335B00B2FBF3F3FB6125
:1033C80001E000BF23E100BF21E17D4BD3F8883045
:1033D80003F000437B617B69002B03D1FFF74CF9B5
:1033E800F86114E1FFF78AF8F86110E1744BD3F83B
:1033F800883003F440537B617B69B3F5805F09D063
:10340800B3F5005F0AD0002B00D011E0FFF71EF9DA
:10341800F8610DE0FFF772F8F86109E0684B1B6886
:1034280003F48063B3F5806F01D1664BFB6100BF85
:10343800EDE0634BD3F8883003F440437B617B694C
:10344800B3F5804F09D0B3F5004F0AD0002B00D058
:1034580011E0FFF7FBF8F8610DE0FFF74FF8F861AE
:1034680009E0574B1B6803F48063B3F5806F01D103
:10347800544BFB6100BFCAE0514BD3F8883003F4CA
:1034880040337B617B69B3F5803F09D0B3F5003FDA
:103498000AD0002B00D011E0FFF7D8F8F8610DE052
:1034A800FFF72CF8F86109E0454B1B6803F48063CB
:1034B800B3F5806F01D1434BFB6100BFA7E0404BE0
:1034C800D3F8883003F440237B617B69B3F5802F00
:1034D80010D0B3F5802F02D8002B07D02FE0B3F51A
:1034E800002F12D0B3F5402F19D028E0FFF7AEF81F
:1034F800F86124E0324BD3F8943003F00203022B36
:1035080018D14FF4FA43FB6114E02D4B1B6803F408
:103518008063B3F5806F0FD12A4BFB610CE0284B19
:10352800D3F8903003F00203022B07D14FF4004385
:10353800FB6103E000BF6AE000BF68E000BF66E02F
:103548001F4BD3F8883003F440137B617B69B3F5D4
:10355800801F10D0B3F5801F02D8002B07D034E0AD
:10356800B3F5001F12D0B3F5401F19D02DE0FFF7B7
:103578006DF8F86129E0124BD3F8943003F0020398
:10358800022B18D14FF4FA43FB6114E00C4B1B6873
:1035980003F48063B3F5806F0FD10A4BFB610CE035
:1035A800074BD3F8903003F00203022B0CD14FF4F1
:1035B8000043FB6108E000BF29E000BF27E000BF2F
:1035C800001002400024F40000BF20E0124BD3F8A2
:1035D800883003F080437B617B69002B03D0B3F113
:1035E800804F04D00DE0FFF731F8F86109E00A4B8D
:1035F8001B6803F48063B3F5806F01D1074BFB614F
:1036080000BF04E000BF02E000BF00E000BFFB69AC
:1036180018462037BD4680BD001002400024F40043
:1036280080B584B000AF786039600023FB73734BBA
:10363800DB6803F00303002B18D0704BDB6803F042
:1036480003027B681B689A420DD17B681B68002BBC
:1036580009D06A4BDB681B0903F007035A1C7B6817
:103668005B689A4244D00123FB7341E07B681B6886
:10367800022B0CD0032B13D0012B20D15F4B1B68DE
:1036880003F00203002B1DD10123FB731AE05B4BEF
:103698001B6803F48063002B16D10123FB7313E02E
:1036A800564B1B6803F40033002B0FD1534B1B6898
:1036B80003F48023002B09D10123FB7306E00123C7
:1036C800FB7304E000BF02E000BF00E000BFFB7B2B
:1036D800002B0DD14948494BDB6823F073027B6806
:1036E80019687B685B68013B1B010B431343C3608C
:1036F800FB7B002B7DD1414A404B1B6823F0806344
:103708001360FCF7B7FDB86009E0FCF7B3FD0246AB
:10371800BB68D31A022B02D90323FB7305E0374B8E
:103728001B6803F00063002BEFD1FB7B002B60D1FB
:103738003B68002B11D13148304B1B6923F41F33F0
:1037480023F440737A68926811027A68D268120981
:1037580052040A431343036127E03B68012B12D14B
:103768002648264B1B6923F4C00323F4FE437A68DA
:10377800926811027A6812695208013A52050A439E
:103788001343036111E01D481C4B1B6923F0C06300
:1037980023F4FE437A68926811027A6852695208E3
:1037A800013A52060A4313430361144A134B1B6838
:1037B80043F080631360FCF75DFDB86009E0FCF737
:1037C80059FD0246BB68D31A022B02D90323FB73A7
:1037D80005E00A4B1B6803F00063002BEFD0FB7B6E
:1037E800002B06D10549054B1A697B689B69134371
:1037F8000B61FB7B18461037BD4680BD00100240A8
:1038080080B584B000AF786039600023FB73684BE3
:10381800DB6803F00303002B18D0654BDB6803F06B
:1038280003027B681B689A420DD17B681B68002BDA
:1038380009D05F4BDB681B0903F007035A1C7B6840
:103848005B689A4244D00123FB7341E07B681B68A4
:10385800022B0CD0032B13D0012B20D1544B1B6807
:1038680003F00203002B1DD10123FB731AE0504B18
:103878001B6803F48063002B16D10123FB7313E04C
:103888004B4B1B6803F40033002B0FD1484B1B68CC
:1038980003F48023002B09D10123FB7306E00123E5
:1038A800FB7304E000BF02E000BF00E000BFFB7B49
:1038B800002B0DD13E483E4BDB6823F073027B683A
:1038C80019687B685B68013B1B010B431343C360AA
:1038D800FB7B002B67D1364A354B1B6823F080539E
:1038E8001360FCF7C7FCB86009E0FCF7C3FC0246AC
:1038F800BB68D31A022B02D90323FB7305E02C4BB8
:103908001B6803F00053002BEFD1FB7B002B4AD13F
:103918003B68002B11D12648254B5B6923F41F33E4
:1039280023F440737A68926811027A68D26812099F
:1039380052040A431343436111E01D481C4B5B6961
:1039480023F0C06323F4FE437A68926811027A6810
:1039580012695208013A52060A4313434361144A52
:10396800134B1B6843F080531360FCF783FCB8606B
:1039780009E0FCF77FFC0246BB68D31A022B02D988
:103988000323FB7305E00A4B1B6803F00053002B6D
:10399800EFD0FB7B002B06D10549054B5A697B68A4
:1039A8005B6913434B61FB7B18461037BD4680BDEE
:1039B8000010024080B489B000AF786039600023FD
:1039C800FB610023BB6100237B617B68B3F5006F5B
:1039D8000CD1624BD3F8883003F44003BB61BB6958
:1039E800B3F5400F12D15E4BFB610FE07B68B3F576
:1039F800805F0BD1594BD3F8883003F04073BB611B
:103A0800BB69B3F1407F01D1554BFB61FB69002BCA
:103A180040F09C803B683B61BB69B3F5000F03D065
:103A2800BB69B3F1007F2DD14C4BDB6803F48033C5
:103A3800002B00F08B80494BDB681B0903F0070360
:103A480001333A69B2FBF3F33B61444BDB681B0A71
:103A580003F07F03FB607B69002B0AD13F4BDB68D7
:103A680003F40033002B02D011237B6101E007230C
:103A78007B613B69FA6802FB03F27B69B2FBF3F3F3
:103A8800FB6163E0BB69002B2CD1344B1B6903F449
:103A98008033002B5AD0314BDB681B0903F0070336
:103AA80001333A69B2FBF3F33B612C4B1B691B0AE8
:103AB80003F07F03FB607B69002B0AD1274B1B694E
:103AC80003F40033002B02D011237B6101E00723AC
:103AD8007B613B69FA6802FB03F27B69B2FBF3F393
:103AE800FB6133E0BB69B3F5800F03D0BB69B3F169
:103AF800807F2BD1194B5B6903F48033002B25D0D1
:103B0800164BDB681B0903F0070301333A69B2FB64
:103B1800F3F33B61114B5B691B0A03F07F03FB6006
:103B28007B69002B0AD10D4B5B6903F40033002B32
:103B380002D011237B6101E007237B613B69FA68AE
:103B480002FB03F27B69B2FBF3F3FB61FB691846E6
:103B58002437BD465DF8047B704700BF0010024063
:103B680068FF1F0080B584B000AF78600123FB7345
:103B78007B68002B00F092800023FB737B6893F82E
:103B88002130DBB2002B06D17B68002283F820208D
:103B9800786800F088F87B68022283F821207B6827
:103BA8001B68CA225A627B681B6853225A6278686B
:103BB80000F0CCFA0346002B0AD07B681B68FF2272
:103BC8005A627B68042283F821200123FB7365E095
:103BD8007B681A687B681B689B6823F4E00323F002
:103BE800400393607B681B687A68126891687A68FA
:103BF80050687A68126910437A68926902430A43E6
:103C08009A607B681B687A68D2681A617B681B684F
:103C18007A68126811697A68926812040A431A610C
:103C28007B681B687A681268D26822F08002DA60C2
:103C38007B681B689B6803F02003002B0FD1786812
:103C480000F05EFA0346002B09D07B681B68FF2250
:103C58005A627B68042283F821200123FB73FB7BD3
:103C6800002B1BD17B681B687A681268D26C22F023
:103C78000302DA647B681B687A681268D16C7A6818
:103C8800D0697A68526902430A43DA647B681B6820
:103C9800FF225A627B68012283F82120FB7B1846A9
:103CA8001037BD4680BD80B483B000AF786000BFD8
:103CB8000C37BD465DF8047B704790B587B000AF00
:103CC800F860B9607A60FB6893F82030012B01D165
:103CD8000223BAE0FB68012283F82020FB68022255
:103CE80083F82120FB681B68CA225A62FB681B689C
:103CF80053225A62F86800F029FA0346002B0DD0C7
:103D0800FB681B68FF225A62FB68042283F82120A3
:103D1800FB68002283F82020012396E07B68002BB3
:103D280026D1FB681B689B6803F04003002B02D177
:103D3800BB680022DA70BB681B78184600F030FABE
:103D480003461C04BB685B78184600F029FA034652
:103D58001B021C43BB689B78184600F021FA0346F7
:103D680044EA0302BB68DB789B0513437B6120E0D0
:103D7800FB681B689B6803F04003002B07D0BB68F7
:103D88001B78184600F02CFA03467B6102E0BB68FA
:103D98000022DA70BB681B781A04BB685B781B02C8
:103DA8001343BA6892781A43BB68DB789B051343C0
:103DB8007B61FB681A687B6903F07F3323F0FE435D
:103DC8001360FB681B68FA681268926822F4802204
:103DD8009A60FB681B68FA6812689168BA68D068CC
:103DE800BA68126902430A439A60FB681B68FA685A
:103DF8001268D26822F08002DA60FB681B689B6850
:103E080003F02003002B13D1F86800F079F903467A
:103E1800002B0DD0FB681B68FF225A62FB68042246
:103E280083F82120FB68002283F8202001230CE07E
:103E3800FB681B68FF225A62FB68012283F8212075
:103E4800FB68002283F82020002318461C37BD4653
:103E580090BD80B586B000AFF860B9607A60FB6845
:103E68001B689A6ABB685A60FB681B681B69C3F3C6
:103E78000E02BB689A60FB681B681B6803F07F33FF
:103E880023F0FE437B617B691B0CDBB203F03F032D
:103E9800DAB2BB681A707B691B0ADBB203F07F03D6
:103EA800DAB2BB685A707B69DBB203F07F03DAB21F
:103EB800BB689A707B699B0DDBB203F00103DAB231
:103EC800BB68DA707B68002B1AD1BB681B78184670
:103ED80000F086F903461A46BB681A70BB685B781F
:103EE800184600F07DF903461A46BB685A70BB684D
:103EF8009B78184600F074F903461A46BB689A7016
:103F0800002318461837BD4680BD90B587B000AF6E
:103F1800F860B9607A60FB6893F82030012B01D112
:103F280002239CE0FB68012283F82020FB68022220
:103F380083F821207B68002B0ED1BB685B7803F0E7
:103F48001003002B08D0BB685B7823F01003DBB2AA
:103F58000A33DAB2BB685A707B68002B1CD1BB6885
:103F6800DB78184600F01CF903461C04BB685B7834
:103F7800184600F015F903461B021C43BB689B78E2
:103F8800184600F00DF9034644EA0302BB681B78A3
:103F98005B0313437B610EE0BB68DB781A04BB68E4
:103FA8005B781B021343BA6892781A43BB681B7884
:103FB8005B0313437B61FB681B68CA225A62FB6878
:103FC8001B6853225A62F86800F0C0F80346002BB9
:103FD8000DD0FB681B68FF225A62FB68042283F835
:103FE8002120FB68002283F82020012337E0FB68AA
:103FF8001A687B6923F07F4323F0C0035360FB6892
:104008001B68FA681268D26822F08002DA60FB68DE
:104018001B689B6803F02003002B13D1F86800F09D
:104028006FF80346002B0DD0FB681B68FF225A620D
:10403800FB68042283F82120FB68002283F82020F3
:1040480001230CE0FB681B68FF225A62FB6801220F
:1040580083F82120FB68002283F8202000231846DB
:104068001C37BD4690BD80B586B000AFF860B9601A
:104078007A60FB681B685B6823F07F4323F0C0030A
:104088007B617B691B0CDAB2BB68DA707B691B0A3F
:10409800DBB203F01F03DAB2BB685A707B69DBB28C
:1040A80003F03F03DAB2BB689A707B695B0BDBB243
:1040B80003F00703DAB2BB681A707B68002B1AD1C9
:1040C800BB68DB78184600F08BF803461A46BB68D5
:1040D800DA70BB685B78184600F082F803461A4627
:1040E800BB685A70BB689B78184600F079F803469D
:1040F8001A46BB689A70002318461837BD4680BD1B
:1041080080B584B000AF78607B681B687A681268F5
:10411800D26822F0A002DA60FCF7ACF8F86009E097
:10412800FCF7A8F80246FB68D31AB3F57A7F01D9E1
:10413800032307E07B681B68DB6803F02003002B80
:10414800EED0002318461037BD4680BD80B584B038
:1041580000AF78607B681B68DB6803F04003002BC6
:1041680019D17B681B684FF0FF32DA60FCF782F8E0
:10417800F86009E0FCF77EF80246FB68D31AB3F54D
:104188007A7F01D9032307E07B681B68DB6803F0AB
:104198004003002BEED0002318461037BD4680BDE3
:1041A80080B485B000AF0346FB710023FB60FB7948
:1041B800FB7205E0FB680133FB60FB7A0A3BFB728C
:1041C800FB7A092BF6D8FB68DBB21B01DAB2FB7A63
:1041D8001343DBB218461437BD465DF8047B7047BD
:1041E80080B485B000AF0346FB71FB791B09DBB2D5
:1041F8001A46920013445B00FB73FB7903F00F032C
:10420800DAB2FB7B1344DBB218461437BD465DF8BF
:10421800047B704780B588B000AF78607B68002B5E
:1042280001D101234AE17B6893F87D30DBB2002B92
:1042380006D17B68002283F87C20786801F0B2F907
:10424800786800F04DF90346002B01D0012335E1D1
:104258007B68022283F87D207B68DB68012B07D00E
:10426800012B02D3022B06D008E00023FB6108E0F3
:104278001023FB6105E02023FB6102E00023FB61C2
:1042880000BF7B689B68032B1DD801A252F823F05E
:10429800A9420008AF420008B7420008BF42000820
:1042A80000237B6112E04FF480637B610EE04FF4E2
:1042B80000637B610AE04FF400637B61FB6943F0B4
:1042C8000103FB6102E000237B6100BF7B681B6880
:1042D8007C4A934204D07B681B687B4A934203D193
:1042E8007A4AFB69136002E0794AFB6913607B68CC
:1042F800DB69002B38D07B681B68724A934204D074
:104308007B681B68704A934205D14FF40060FEF742
:104318000FFD386104E04FF48050FEF709FD386165
:104328003A6913469B0013445B001A467B68DB69B5
:104338005B02B2FBF3F3FB60FB68664AA2FB032354
:10434800DA087B681A62F968624BA3FB0123DA0872
:1043580013469B0013445B00CA1A082A04D97B68D9
:104368001B6A5A1C7B681A627B685B68002B03D047
:104378007B685B68022B09D17B68DB6B012B01D161
:10438800002301E04FF40073BB6108E07B68DB6B3E
:10439800012B02D14FF4007300E00023BB617B685E
:1043A8001A687B681B6819684B4B0B4013607B6865
:1043B8001B687A68126811687A6850687A68126BA4
:1043C80010437A68526B10437A68926B1043BA694B
:1043D80010437A6910437A68526A10437A681269FE
:1043E80010437A68526910437A68126A12050243C8
:1043F8000A431A607B681A687B681B685B6823F449
:10440800604323F00F0353607B681B687A68126867
:1044180051687A6890697A68926A10437A68D26AB1
:1044280002430A435A607B681A687B681B6899686C
:104438002A4B0B4093607B681B687A681268916806
:104448007A68126C501E7A68126D10437A68926C02
:1044580010437A68D26C10437A68526C013A12029F
:1044680002430A439A607B681A687B681B68D968AC
:104478004FF220030B40D3607B681B687A68126890
:10448800D1687A68506D7A68926D10437A68126EB6
:10449800120410437A68D26D013A120202430A43A9
:1044A800DA607B680022C3F880207B68012283F8E9
:1044B8007D207B68002283F87C2000231846203763
:1044C800BD4680BD045401402454014000540140BD
:1044D80000580140CDCCCCCC10C005FF0080F8FFBF
:1044E80090B484B000AF7860154B1B68154AA2FBE6
:1044F80003231B0B9C000023FB737B681B687A68F3
:104508001268126822F480321A60002C0AD17B6883
:10451800D3F8803043F040027B68C3F8802003233F
:10452800FB7307E0013C7B681B681B6803F480335E
:10453800002BEAD1FB7B18461037BD4690BC70476C
:10454800180000201BECCB9590B59DB000AF1A4B1E
:1045580007F160040FCB84E80F000323FB70FBF71F
:104568002FFE00F09FF801F09BF8144801F0D2F8F4
:1045780000F06AF900F0EAF900F026F901F0C2FE4D
:1045880000F06AFA00F086F96420FBF77FFE01F07C
:10459800EFF80B4B1B78052B06D1094B00221A703C
:1045A800FB1C184600F064FB0A20FBF76FFE054869
:1045B80000F006FDEDE700BF6069000858690008D3
:1045C800380000205C01002080B582B000AF0346AF
:1045D800FB80FB88013B1F2B56D801A252F823F021
:1045E800714600087946000891460008814600088F
:1045F800914600089146000891460008894600083F
:104608009146000891460008914600089146000826
:104618009146000891460008914600089146000816
:104628009146000891460008914600089146000806
:1046380091460008914600089146000891460008F6
:1046480091460008914600089146000891460008E6
:1046580091460008914600089146000869460008FE
:104668000E4B02221A7015E00C4B05221A7011E04D
:104678000A4B03221A700DE0084B04221A7009E055
:10468800064B01221A7005E0012204210448FCF7B8
:104698004DFA00BF00BF0837BD4680BD3800002076
:1046A8000004004880B5B8B000AF07F19C0344226D
:1046B8000021184602F0F0F807F1880300221A607A
:1046C8005A609A60DA601A613B46882200211846CF
:1046D80002F0E2F81823C7F89C300123C7F8B0307D
:1046E8000123C7F8B4300023C7F8B8306023C7F8EF
:1046F800BC300223C7F8C4300123C7F8C8300123EF
:10470800C7F8CC302823C7F8D0300723C7F8D430EF
:104718000223C7F8D8300223C7F8DC3007F19C031E
:104728001846FDF7A9FA0346002B01D000F072FAEB
:104738000F23C7F888300323C7F88C300023C7F845
:1047480090300023C7F894300023C7F8983007F159
:10475800880304211846FDF7F3FD0346002B01D01A
:1047680000F058FA174B3B6000233B6500237B663B
:104778004FF40073C7F8843001237B600123BB60CA
:104788001023FB6007233B6102237B610223BB618B
:104798004FF48033FB613B461846FDF7E3FF0346C1
:1047A800002B01D000F036FA4FF40070FCF70AFD38
:1047B8000346002B01D000F02DFA00BFE037BD46BC
:1047C80080BD00BF4008020080B500AF1B4B1C4AEB
:1047D8001A601A4B1B4A5A60184B00229A60174BF2
:1047E8000122DA60154B00221A61144B00225A612B
:1047F800124B00229A61114B0022DA610F4B002202
:104808001A620E48FCF7C2F90346002B01D000F0EB
:1048180001FA00210948FCF751FA0346002B01D0A0
:1048280000F0F8F900210548FCF793FA0346002B3D
:1048380001D000F0EFF900BF80BD00BF8C00002060
:1048480000540040EC9C901080B500AF0F4B104A0C
:104858001A600E4BFF225A600C4B01229A600B4BD8
:104868000022DA60094B01221A61084B00225A61C2
:10487800064B00229A610548FCF7FAFC0346002B18
:1048880001D000F0C7F900BF80BD00BF4002002082
:10489800001000A080B586B000AF3B1D00221A6052
:1048A8005A609A60DA601A6100233B60254B264AF9
:1048B8001A60244B00225A60224B7F229A60214BB7
:1048C800FF22DA601F4B00221A611E4B00225A6138
:1048D8001C4B00229A611B4B0022DA611948FFF732
:1048E80041F90346002B01D000F094F908233B71ED
:1048F80000237B710023BB7100233B6100237B6194
:104908003B1D012219460F48FFF7D7F90346002B34
:1049180001D000F07FF901233B7001237B70012354
:10492800BB700023FB703B46012219460548FFF780
:10493800ECFA0346002B01D000F06CF900BF1837E1
:10494800BD4680BD5C0100200028004080B500AF56
:104958003C4B3D4A1A603B4B00221A63394B0022FC
:104968005A60384B40225A63364B00229A63354BC3
:104978000022DA63334B00229A60324B00221A611C
:10498800304B00225A612F4B00229A612D4B2F4A3F
:10499800DA612C4B0022DA602A4B00225A62294B3A
:1049A80000229A62274B0022DA62264B08221A64F8
:1049B800244B01225A64234B00229A64214B002283
:1049C800DA64204B00221A651E4B00225A651D4BE3
:1049D80000229A651B4B0122DA651A4B00221A66DF
:1049E8001848FFF717FC0346002B01D000F012F916
:1049F800174B184A1A60164B04221A63144B0022EC
:104A08005A60134B00229A60114B00221A61104B16
:104A180000229A610E4B4BF68032DA610C4B002271
:104A2800DA600B4B00225A62094B00229A6208484E
:104A3800FFF7F0FB0346002B01D000F0EBF800BFB6
:104A480080BD00BFBC0100200454014000EE0200FC
:104A5800D80000202454014080B58AB000AF07F187
:104A6800140300221A605A609A60DA601A61644A74
:104A7800634BDB6C43F01003D364614BDB6C03F0D6
:104A880010033B613B695E4A5D4BDB6C43F00403FA
:104A9800D3645B4BDB6C03F00403FB60FB68584A90
:104AA800574BDB6C43F00103D364554BDB6C03F0CD
:104AB8000103BB60BB68524A514BDB6C43F00203F5
:104AC800D3644F4BDB6C03F002037B607B684C4A7A
:104AD8004B4BDB6C43F00803D364494BDB6C03F0AE
:104AE80008033B603B68002240F209114548FCF787
:104AF8001DF8002201214448FCF718F8002204217F
:104B08004248FCF713F840F209137B610123BB61AB
:104B18000023FB6100233B6207F11403194639485F
:104B2800FBF75CFE01237B610123BB610023FB6172
:104B380000233B6207F1140319463348FBF74EFE86
:104B480004237B610023BB610023FB6107F114038D
:104B580019462D48FBF742FE01237B612C4BBB61B4
:104B68000023FB6107F1140319464FF09040FBF74F
:104B780035FE2E237B61264BBB610223FB6107F1C7
:104B8800140319464FF09040FBF728FE04237B617D
:104B98000123BB610023FB6100233B6207F114037F
:104BA80019461A48FBF71AFE002200210620FBF7D7
:104BB80060FC0620FBF779FC002200210720FBF7A8
:104BC80058FC0720FBF771FC002200210820FBF7A6
:104BD80050FC0820FBF769FC002200210920FBF7A4
:104BE80048FC0920FBF761FC002200211720FBF795
:104BF80040FC1720FBF759FC00BF2837BD4680BD95
:104C08000010024000100048000800480004004856
:104C18000000111080B400AF00BFBD465DF8047BF2
:104C28007047000080B500AF17E00F4B1B78012BD1
:104C380002D0022B04D007E00B4B00221A7003E0CD
:104C4800094B00221A7000BF4FF4967201210748E1
:104C580000F098FD0A20FBF719FB034B1B78052B86
:104C6800E3D100BF80BD00BF38000020CC69000838
:104C780080B584B000AF78600023FB734BE02B4B0A
:104C88001B78013B042B3CD801A252F823F000BF4B
:104C9800D54C0008AD4C00080B4D0008F14C00083D
:104CA800F94C0008214B00221A7000F061FDFB7BD3
:104CB8000133FB73FA7B1E4BA3FB021399080B46C7
:104CC8005B000B445B00D31AFB731DE0174B0022FB
:104CD8001A7000F04DFDFB7B013BFB73FB7B062B41
:104CE80011D90523FB730EE0104B00221A700BE05C
:104CF8000E4B00221A70FB7B7968184600F06EF89C
:104D080002E000BF00E000BFFB7B184600F012F88D
:104D18000A20FBF7BBFA054B1B78032BAFD1034BDB
:104D280000221A7000BF1037BD4680BD3800002031
:104D3800ABAAAAAA80B582B000AF0346FB71FB7983
:104D4800052B39D801A252F823F000BF6D4D000899
:104D5800794D0008894D0008994D0008A54D0008B7
:104D6800B14D0008174B1B68184600F0D3FC24E02F
:104D7800154B1B6864220121184600F003FD1CE056
:104D8800124B1B6864220121184600F0FBFC14E05A
:104D98000F4B1B68184600F0BDFC0EE00D4B1B685E
:104DA800184600F0B7FC08E00B4B1B686422012191
:104DB800184600F0E7FC00E000BF00BF0837BD461A
:104DC80080BD00BF00000020040000200800002073
:104DD8000C000020100000201400002080B582B0D4
:104DE80000AF03463960FB71FB79052B24D801A27B
:104DF80052F823F0154E00081B4E0008234E0008F9
:104E08002B4E0008334E00083B4E000800F01CF8FB
:104E180013E00C4800F04CF90FE00A4800F048FA9B
:104E28000BE0386800F072F807E0386800F014F812
:104E380003E0FFF7F7FE00E000BF00BF0837BD46FC
:104E480080BD00BF5C01002080B400AF00BFBD463C
:104E58005DF8047B7047000080B584B000AF7860CF
:104E68007B681B78FB733CE0254B1B78022B16D024
:104E7800032B26D0012B00D027E0214B00221A70EB
:104E8800FB7B03F00203002B04D0FB7B23F002031F
:104E9800FB731AE0FB7B43F00203FB7315E0184B2E
:104EA80000221A70FB7B03F00203002B04D0FB7B6B
:104EB80023F00203FB7308E0FB7B43F00203FB7360
:104EC80003E00F4B00221A7016E0FB7B03F002038D
:104ED800002B03D00B4800F01DFC02E00A4800F04C
:104EE80019FC074B1B78052BBED1054B00221A7005
:104EF8007B68FA7B1A7000BF1037BD4680BD00BFC3
:104F080038000020DC690008E469000880B584B036
:104F180000AF78607B681B78FB733CE0254B1B78FF
:104F2800022B16D0032B26D0012B00D027E0214BD3
:104F380000221A70FB7B03F00103002B04D0FB7BDB
:104F480023F00103FB731AE0FB7B43F00203FB73BE
:104F580015E0184B00221A70FB7B03F00103002BAD
:104F680004D0FB7B23F00103FB7308E0FB7B43F0D9
:104F78000103FB7303E00F4B00221A7016E0FB7B62
:104F880003F00103002B03D00B4800F0C3FB02E041
:104F98000A4800F0BFFB074B1B78052BBED1054B19
:104FA80000221A707B68FA7B1A7000BF1037BD4662
:104FB80080BD00BF38000020DC690008E4690008F3
:104FC80080B58AB000AF7860384A07F1200392E8CC
:104FD800030018600433198002330A0C1A7007F1B1
:104FE8000C03002219467868FEF733FF07F108031F
:104FF800002219467868FFF736F800F0B9FB0A2056
:10500800FBF744F93B7B092B08D93B7B184607F192
:1050180020030A22194601F03DFC0BE03B7B1846B1
:1050280007F1200301330A22194601F033FC20233B
:1050380087F820307B7B092B09D97B7B184607F141
:10504800200302330A22194601F024FC0BE07B7B83
:10505800184607F1200303330A22194601F01AFC07
:10506800202387F82230BB7B092B09D9BB7B184644
:1050780007F1200304330A22194601F00BFC0BE068
:10508800BB7B184607F1200305330A22194601F0B5
:1050980001FC202387F8243007F12003184600F08C
:1050A80039FB00BF2837BD4680BD00BFEC6900084A
:1050B800B0B590B000AF78607B4BFB637A4A07F1DC
:1050C800340392E8030018600433198002330A0C91
:1050D8001A7007F12003002219467868FEF7B9FE16
:1050E80007F10803002219467868FEF7BCFF07F1AC
:1050F8000C0407F120050FCD0FC42B682360002393
:10510800BB6100F035FB55E007F13403F96B184635
:1051180001F0CAFB482387F83430644B1B78022B14
:1051280011D0032B1CD0012B00D020E05F4B0022B4
:105138001A703B7B0133DBB23B733B7B172B13D9D4
:1051480000233B7310E0594B00221A703B7B013B54
:10515800DBB23B733B7B172B08D917233B7305E066
:10516800524B00221A709BE000BF00E000BF0A20EB
:10517800FBF78CF83B7B092B09D93B7B184607F1D9
:10518800340304330A22194601F084FB08E03B7B10
:10519800184607F1340305330A22194601F07AFB51
:1051A80000F0E6FA0A20FBF771F807F13403184615
:1051B80000F0B0FA3D4B1B78052BA5D13B4B0022E4
:1051C8001A705BE007F13403F96B184601F06CFBC9
:1051D8004D2387F83430492387F835304E2387F834
:1051E8003630324B1B78022B11D0032B1CD0012BED
:1051F80000D020E02D4B00221A707B7B0133DBB2FC
:105208007B737B7B3B2B13D900237B7310E0274BED
:1052180000221A707B7B013BDBB27B737B7B3B2BD1
:1052280008D93B237B7305E0204B00221A7037E036
:1052380000BF00E000BF7B7B092B09D97B7B1846A8
:1052480007F1340304330A22194601F023FB08E06E
:105258007B7B184607F1340305330A22194601F00F
:1052680019FB00F085FA0A20FBF710F807F1340360
:10527800184600F04FFA0A20FBF708F80B4B1B788A
:10528800052B9FD1094B00221A700023BB73002302
:10529800BB6107F10C03002219467868FEF70DFD83
:1052A8004037BD46B0BD00BFEC690008380000209B
:1052B80080B588B000AF7860B84BBB61B74A07F1DA
:1052C800100392E8030018600433198002330A0CB3
:1052D8001A701F23FB7707F1080300221946786824
:1052E800FEF7C1FEBB68FB6000F042FA5AE007F126
:1052F8001003B969184601F0D7FA59233B74A84B33
:105308001B78022B11D0032B1CD0012B00D01DE0E1
:10531800FB7B0133DBB2FB73FB7B632B01D90023DF
:10532800FB739F4B00221A7010E0FB7B013BDBB242
:10533800FB73FB7B632B01D96323FB73984B002220
:105348001A7003E0964B00221A7024E1944B002255
:105358001A700A20FAF79AFF3223BB743023FB74C1
:10536800FB7B092B09D9FB7B184607F11003043393
:105378000A22194601F08EFA0AE0FB7B184607F16B
:10538800100305330A22194601F084FA30233B75CD
:1053980000F0EEF90520FAF779FF07F11003184637
:1053A80000F0B8F97E4B1B78052BA0D17C4B00226E
:1053B8001A7060E007F11003B969184601F074FA31
:1053C8004D233B74764B1B78022B11D0032B1CD03A
:1053D800012B00D020E0724B00221A707B7B013336
:1053E800DBB27B737B7B0B2B13D900237B7310E021
:1053F8006B4B00221A707B7B013BDBB27B737B7BA0
:105408000B2B08D90B237B7305E0654B00221A7020
:10541800C1E000BF00E000BF0A20FAF737FF7B7B3E
:10542800082B0DD97B7B0133DBB27B737B7B184662
:1054380007F1100303330A22194601F02BFA0CE096
:105448007B7B0133DBB27B737B7B184607F1100350
:1054580004330A22194601F01DFA7B7B013BDBB2BB
:105468007B7300F085F90A20FAF710FF07F11003A3
:10547800184600F04FF94A4B1B78052B9AD1484B38
:1054880000221A707B7B013303F00103002B02D149
:10549800FB7F013BFB777B7B012B0AD11C23FB772E
:1054A800FB7B03F00303DBB2002B02D1FB7F01334C
:1054B800FB77FB7F013BFB775FE007F11003B969DE
:1054C800184601F0F1F944233B74354B1B78022B45
:1054D80012D0032B1ED0012B00D022E0304B00222B
:1054E8001A70BB7B0133DBB2BB73BB7BFA7F9A427A
:1054F80014D20023BB7311E0294B00221A70BB7B26
:10550800013BDBB2BB73BB7BFA7F9A4208D2FB7FBD
:10551800BB7305E0224B00221A703CE000BF00E09C
:1055280000BFBB7B092B0DD9BB7B0133DBB2BB733F
:10553800BB7B184607F1100303330A22194601F012
:10554800A9F90CE0BB7B0133DBB2BB73BB7B18460C
:1055580007F1100304330A22194601F09BF9BB7BBB
:10556800013BDBB2BB7300F003F907F110031846E7
:1055780000F0D0F80A20FAF789FE094B1B78052BB2
:105588009BD1074B00221A7007F10C030022194621
:105598007868FEF7BAFC2037BD4680BDEC69000884
:1055A8003800002080B58AB000AF7860374A374BA2
:1055B8001B6E43F400131366344B1B6E03F4001385
:1055C8003B613B69314A314BDB6C43F01003D364D8
:1055D8002E4BDB6C03F01003FB60FB6874237B61CC
:1055E8000223BB610023FB6103233B620D237B6223
:1055F80007F1140319462648FBF7F0F8234A234B12
:105608009B6C43F002039364204B9B6C03F00203F2
:10561800BB60BB687B681B681E4A934229D11E4B3E
:1056280001225A601C4B10229A601B4B0022DA6040
:10563800194B80221A61184B4FF480725A61164B2D
:105648004FF480629A61144B0022DA61124B4FF4D6
:1056580000521A62104B114A1A607B680E4ADA66C9
:105668000D4A7B6893620C48FAF7F2FF0A48FAF78A
:1056780037FF002205213820FAF7FBFE3820FAF719
:1056880014FF00BF2837BD4680BD00BF0010024090
:1056980000100048045401403C0000200804024067
:1056A80080B500AF194B1A4A1A60184B00225A608D
:1056B800164B4FF470129A60144B0C22DA60134B9D
:1056C80040221A61114B00225A61104B4FF4A0522C
:1056D8009A610E4B0022DA610C4B40221A620B4B86
:1056E80000225A62094B00229A62084B4FF480420A
:1056F800DA62064B00221A63044800F0F5F8034802
:10570800FBF774FB00F034F800BF80BD9402002062
:105718000024004080B584B000AF78600023FB739C
:105728000BE0FB7B00220021786800F06BFA7B68B5
:1057380001337B60FB7B0133FB737B681B78002B99
:1057480014BF01230023DAB2FB7B052B94BF01238E
:105758000023DBB21340DBB2002BE2D10348FBF796
:10576800C4FC00BF1037BD4680BD00BF94020020B6
:1057780080B500AF0248FBF75EFC00BF80BD00BFEC
:105788009402002080B586B000AF78600B467B801D
:1057980013463B800023FB750023BB7500237B75F4
:1057A8000023BB600023BB814E4B00221A707B682C
:1057B800002B00F092807B683B6100237B7505E03D
:1057C8007B7D01337B753B6901333B613B691B780A
:1057D800002BF5D17B683B6107F108031846FFF7FA
:1057E80099FF3B881846FAF751FD0023FB756EE0D8
:1057F8000023BB7564E0BB7D01337A7D93FBF2F136
:1058080002FB01F29B1A1A463B6913441B783B7250
:10581800BB7D02337A7D93FBF2F102FB01F29B1A06
:105828001A463B6913441B787B72BB7D03337A7D30
:1058380093FBF2F102FB01F29B1A1A463B691344EF
:105848001B78BB72BB7D04337A7D93FBF2F102FBBC
:1058580001F29B1A1A463B6913441B78FB72BB7D05
:1058680005337A7D93FBF2F102FB01F29B1A1A468B
:105878003B6913441B783B73BB7D06337A7D93FBEE
:10588800F2F102FB01F29B1A1A463B6913441B789A
:105898007B73FFF76DFF07F108031846FFF73AFF20
:1058A800104B1B78DBB2002B03D00E4B00221A7072
:1058B80014E03B881846FAF7E9FCBB7D0133BB7559
:1058C800BA7D7B7D9A4296D3FB7D0133FB75FB7DC8
:1058D8009BB27A889A428BD800E000BF1837BD4641
:1058E80080BD00BF8400002080B5C0B000AF7860E4
:1058F80007F1EC0300221A605A609A60DA601A61B4
:1059080007F1A80344220021184600F0C5FF07F15B
:10591800200388220021184600F0BEFF514A514B4F
:105928009B6D43F0805393654E4B9B6D03F0805302
:10593800FB61FB690423C7F8A8300023C7F8D030FF
:105948000123C7F8B03007F1A8031846FCF794F90B
:105958000346002B00D0FEE74FF400333B624FF4C0
:105968008073C7F8A43007F120031846FCF7FAFE45
:105978003C4A3C4BDB6C43F00103D364394BDB6C92
:1059880003F00103BB61BB69364A364BDB6C43F05D
:105998000203D364334BDB6C03F002037B617B6946
:1059A800304A304BDB6C43F00403D3642D4BDB6C83
:1059B80003F004033B613B692A4A2A4BDB6C43F042
:1059C8000803D364274BDB6C03F00803FB60FB6818
:1059D80048F2C073C7F8EC300223C7F8F030002350
:1059E800C7F8F4300323C7F8F8300B23C7F8FC30A6
:1059F80007F1EC0319464FF09040FAF7EFFE4FF22B
:105A08003323C7F8EC3007F1EC0319461648FAF7C8
:105A1800E5FE4FF4FC73C7F8EC3007F1EC031946C8
:105A28001248FAF7DBFE4FF47F43C7F8EC3007F172
:105A3800EC0319460E48FAF7D1FE0220FAF726FCC5
:105A4800084A084B9B6D43F400739365054B9B6DA7
:105A580003F40073BB60BB6800BF07F58077BD46E1
:105A680080BD00BF00100240000400480008004844
:105A7800000C004880B485B000AF78600B46FB701E
:105A88001346BB700023FB8100237B7300233B7309
:105A98007B681B782F2B4DD02F2B11DC292B2ED078
:105AA800292B06DC252B4CD0282B25D0202B1CD0CD
:105AB80057E02B2B3AD02B2B1ADB2D2B32D050E072
:105AC8006D2B23D06D2B04DC392B42DD642B19D0D0
